:020000040800F2
:10000000000002205D100008291000082B100008D5
:100010002D1000082F10000831100008000000000B
:100020000000000000000000000000003310000885
:1000300035100008000000003710000839100008D3
:10004000AD100008AD100008AD100008AD1000089C
:10005000AD100008AD100008AD100008AD1000088C
:10006000AD100008AD100008AD100008AD1000087C
:10007000AD100008AD100008AD100008AD1000086C
:10008000AD100008AD100008AD100008AD1000085C
:10009000AD100008AD100008AD100008AD1000084C
:1000A000AD100008AD100008AD100008AD1000083C
:1000B000AD100008AD100008AD100008AD1000082C
:1000C000AD100008AD100008AD100008AD1000081C
:1000D000AD100008AD100008AD100008AD1000080C
:1000E000AD100008AD100008AD100008AD100008FC
:1000F000AD100008AD100008AD100008AD100008EC
:10010000AD100008AD100008AD100008AD100008DB
:10011000AD100008AD100008AD100008AD100008CB
:10012000AD100008AD100008AD100008AD100008BB
:10013000AD100008AD100008AD100008AD100008AB
:10014000AD100008AD100008AD1000083D1000080B
:10015000AD100008AD100008AD100008AD1000088B
:10016000AD100008AD100008AD100008AD1000087B
:10017000AD100008AD100008AD1000080000000030
:08018000AD100008AD100008ED
:1001880010B5054C237833B9044B13B10448AFF3C9
:1001980000800123237010BDF4000020000000003F
:1001A800A050000808B5034B1BB103490348AFF33F
:1001B800008008BD00000000F8000020A0500008E2
:1001C80053B94AB9002908BF00281CBF4FF0FF31B6
:1001D8004FF0FF3000F074B9ADF1080C6DE904CEB2
:1001E80000F006F8DDF804E0DDE9022304B070470A
:1001F8002DE9F047089D04468E46002B4DD18A42D2
:10020800944669D9B2FA82F252B101FA02F3C2F104
:10021800200120FA01F10CFA02FC41EA030E944095
:100228004FEA1C48210CBEFBF8F61FFA8CF708FBB6
:1002380016E341EA034306FB07F199420AD91CEB8E
:10024800030306F1FF3080F01F81994240F21C81C0
:10025800023E63445B1AA4B2B3FBF8F008FB103308
:1002680044EA034400FB07F7A7420AD91CEB04043D
:1002780000F1FF3380F00A81A74240F2078164440D
:10028800023840EA0640E41B00261DB1D440002392
:10029800C5E900433146BDE8F0878B4209D9002DF6
:1002A80000F0EF800026C5E9000130463146BDE880
:1002B800F087B3FA83F6002E4AD18B4202D38242EA
:1002C80000F2F980841A61EB030301209E46002D99
:1002D800E0D0C5E9004EDDE702B9FFDEB2FA82F2EE
:1002E800002A40F09280A1EB0C014FEA1C471FFA4C
:1002F8008CFE0126200CB1FBF7F307FB131140EA33
:1003080001410EFB03F0884208D91CEB010103F1FF
:10031800FF3802D2884200F2CB804346091AA4B2C1
:10032800B1FBF7F007FB101144EA01440EFB00FE95
:10033800A64508D91CEB040400F1FF3102D2A645FA
:1003480000F2BB800846A4EB0E0440EA03409CE799
:10035800C6F12007B34022FA07FC4CEA030C20FA46
:1003680007F401FA06F31C43F9404FEA1C4900FA66
:1003780006F3B1FBF9F8200C1FFA8CFE09FB1811E3
:1003880040EA014108FB0EF0884202FA06F20BD956
:100398001CEB010108F1FF3A80F08880884240F2A6
:1003A8008580A8F102086144091AA4B2B1FBF9F0EA
:1003B80009FB101144EA014100FB0EFE8E4508D9E5
:1003C8001CEB010100F1FF346CD28E456AD902386A
:1003D800614440EA0840A0FB0294A1EB0E01A1424F
:1003E800C846A64656D353D05DB1B3EB080261EBBD
:1003F8000E0101FA07F722FA06F3F1401F43C5E997
:10040800007100263146BDE8F087C2F12003D840CC
:100418000CFA02FC21FA03F3914001434FEA1C470E
:100428001FFA8CFEB3FBF7F007FB10360B0C43EA00
:10043800064300FB0EF69E4204FA02F408D91CEBB0
:10044800030300F1FF382FD29E422DD902386344AE
:100458009B1B89B2B3FBF7F607FB163341EA03414E
:1004680006FB0EF38B4208D91CEB010106F1FF389D
:1004780016D28B4214D9023E6144C91A46EA004694
:1004880038E72E46284605E70646E3E61846F8E626
:100498004B45A9D2B9EB020864EB0C0E0138A3E76F
:1004A8004646EAE7204694E74046D1E7D0467BE750
:1004B800023B614432E7304609E76444023842E7C8
:1004C800704700BF10B5102494B0224600210AA836
:1004D80004F0DAFD1422002103A804F0D5FD1F4B17
:1004E800002101911A6C42F080521A641B6C03F0CF
:1004F80080530193019B1A4B02911A6842F480427F
:100508001A601B6803F480430293029B4FF4803205
:100518000323CDE908320122CDE90B244FF48001F1
:100528000222CDE90E2108204821CDE9100108A8B2
:10053800CDE9122302F000FD014608B172B6FEE7CC
:100548000F23CDE90330CDE90500079003A802F099
:10055800D1FE08B172B6FEE714B010BD00380240F3
:10056800007000402DE9F0419AB003F0A1FDFFF7BB
:10057800A9FF1422002111A804F086FD0024A94B2C
:1005880001941A6BA848A94DDFF8E48242F0800272
:100598001A631A6B02F080020192019A02941A6B94
:1005A80042F004021A631A6B02F004020292029AE1
:1005B80003941A6B42F001021A631A6B02F00102EB
:1005C8000392039A04941A6B42F002021A631A6B9C
:1005D80002F002020492049A05941A6B42F0100287
:1005E8001A631A6B02F010020592059A06941A6BA8
:1005F80042F008021A631B6B03F0080306932246B5
:100608004FF4F061069B01F095FE2246884842F2BD
:10061800080101F08FFE01264FF4F063824811A90A
:10062800CDE91136CDE91344102701F0A9FD42F2B6
:1006380008037F4811A9CDE91136CDE9134401F02B
:100648009FFD04F0F9FA3A46214611A804F01CFD72
:10065800784BAC602846C5E900342C612C7685F8C7
:100668002040EC62C5F82880EC60EE6185F83040E7
:100678006E6101F06BFB08B172B6FEE7CDE91106B9
:10068800139011A9284601F007FC054608B172B677
:10069800FEE7694C01463A4611A804F0F5FC674BA1
:1006A800A5602046C4E90035C4E90A852561257698
:1006B80084F82050E560E66184F83050666101F006
:1006C80045FB08B172B6FEE7139011A92046CDE9A3
:1006D800116601F0E1FB034608B172B6FEE758481F
:1006E800584A83618383C0E90233C0E90433C0E90F
:1006F800002701F063FC034608B172B6FEE75248D2
:10070800524A534C0362C0E900424FF48042C0E9A8
:100718000233C0E90423C0E9063301F011FE0346A1
:1007280008B172B6FEE74B484B4983624FF48272B8
:10073800C0E900120A244FF48022C0E90233C0E95C
:100748000433C0E90623C0E90833C46202F094FE0A
:10075800034608B172B6FEE74048414A8361C0E9E2
:100768000A34C0E90023C0E90233C0E90433C0E910
:10077800083302F081FE044608B172B6FEE7394D2F
:100788000146202212A804F07FFC4FF08043C5E9FF
:1007980000344FF0FF33C5E9033411A90323284679
:1007A800CDE90D44AC60AC6111931396179603F034
:1007B80077F808B172B6FEE7CDE90D000DA9284615
:1007C80002F0B6FE08B172B6FEE70025102200213D
:1007D8000DA804F059FC244C1C22294611A8CDE987
:1007E800095504F051FC214BA5604FF6FF762046D1
:1007F800C4E90035C4E90365A56102F0CDFF08B17D
:1008080072B6FEE74FF480570DA920460D9703F006
:1008180006FA08B172B6FEE7204602F0E9FF48B3CF
:1008280072B6FEE7003802400010024010010020B6
:10083800000C024000200140580100200021014026
:10084800A001002000640040C8010020A08601002B
:10085800005400401C0200200030014074020020B7
:1008680000380040CC02002014030020000400409F
:100878000100000FCDE9090009A9204602F058FE41
:10088800024608B172B6FEE76023CDE91130139035
:10089800159011A9204603F08FF808B172B6FEE74B
:1008A800042211A9204603F087F808B172B6FEE7C2
:1008B800082211A9204603F07FF808B172B6FEE7B6
:1008C8000C2211A9204603F077F8054608B172B644
:1008D800FEE7204600F0BAFA1022294609A804F0DB
:1008E800D3FB1422294611A804F0CEFB604C102239
:1008F80029460DA804F0C8FB5E4B25612046CDE9CA
:100908000755C4E90035C4E90256A56102F044FF61
:1009180008B172B6FEE709A92046099703F07FF9E6
:1009280008B172B6FEE7524802F08EFF08B172B6FF
:10093800FEE7CDE913005023159004244C4811A973
:10094800CDE9114303F067FA024608B172B6FEE733
:100958000123CDE90E300D9010900DA9444803F005
:10096800C1F808B172B6FEE70223414822460DA934
:10097800CDE90D3303F0B6F808B172B6FEE7CDE95C
:10098800070007A93A4802F0D3FD034608B172B63A
:10099800FEE73948394A03614FF4E1350C24C0E9D0
:1009A8000233C0E90543C361C0E9002503F0B8FA82
:1009B800034608B172B6FEE73148324A0362C0E91D
:1009C8000233C0E90434C0E90633C0E9002503F066
:1009D800D5FA034608B172B6FEE72B482B4AC0E9A0
:1009E8000233C0E90025C0E90434C0E9063303F046
:1009F80097FAD8BB264C01228021204601F09AFCA8
:100A0800642003F081FB20460022802101F092FC43
:100A180001224FF48071204601F08CFC642003F021
:100A280073FB204600224FF4807101F083FC012201
:100A38004FF40071204601F07DFC642003F064FB54
:100A4800204600224FF4007101F074FC01224FF49B
:100A58008061204601F06EFC642003F055FB002203
:100A68004FF48061204601F065FCC4E772B6FEE7EA
:100A78005C03002000080040E8030020005000400C
:100A88002C04002000100140A40300200044004072
:100A98000010024072B6FEE782B00C4B00210091B4
:100AA8005A6C42F480425A645A6C02F480420092B2
:100AB800009A01911A6C42F080521A641B6C03F080
:100AC80080530193019B02B0704700BF0038024079
:100AD80010B514228AB0044600210DEB020004F080
:100AE800D3FA23681E4A93421FD11E4B002101915D
:100AF8005A6C42F480725A645A6C02F48072019201
:100B0800019A02911A6B42F001021A631B6B03F0FF
:100B180001030293029B012305931348032305A9AC
:100B2800069301F02DFB0AB010BD104A9342FAD18A
:100B38000C4B002103915A6C42F400725A645A6CAF
:100B480002F400720392039A04911A6B42F00102B4
:100B58001A631B6B03F001030493049B0223DBE776
:100B680000200140003802400000024000210140FE
:100B780010B5044688B01422002103A804F084FAB2
:100B88002268134B9A4221D103F5EA3300210191DF
:100B98001A6C104842F000721A641A6C02F0007263
:100BA8000192019A02911A6B42F008021A631B6BB8
:100BB80003F008030293029B02220323CDE90332C8
:100BC800069303A90923079301F0DAFA08B010BDC8
:100BD80000640040000C024030B5044689B014227D
:100BE800002103A804F050FA2268134B9A4221D13D
:100BF800124C134800250195236B43F0020323632D
:100C0800236B03F002030193019BC0221223CDE959
:100C1800032303210423CDE9061303A901F0B0FA45
:100C28000295236C43F400132364236C03F400132C
:100C38000293029B09B030BD0054004000380240C6
:100C480000040240F0B514228BB0044600210DEBDD
:100C5800020004F019FA23682F4A934223D12F4B3C
:100C68002F48002100915A6C42F480525A645A6C01
:100C780002F480520092009A01911A6B42F001022C
:100C88001A631B6B03F001030193019BF0220223FB
:100C98000321CDE905230523CDE9081305A901F0B2
:100CA8006FFA0BB0F0BD1F4A9342FAD11B4B1E4896
:100CB800002402941A6C42F480421A641A6C02F4FA
:100CC80080420292029A03941A6B42F004021A6359
:100CD8001A6B02F004020392039A04941A6B42F00E
:100CE80002021A631B6B03F002030493049B02279E
:100CF8000C230326052505A9CDE90537CDE90865A7
:100D080001F03EFA4FF4A053CDE90537CDE9074687
:100D18000648099505A9C2E700300140003802409D
:100D28000000024000380040000802400004024071
:100D380070B5044688B01422002103A804F0A4F971
:100D48002368B3F1804F35D103F50E3300240094A6
:100D58001A6C194842F001021A641A6C02F0010276
:100D68000092009A01941A6B42F001021A631A6BFE
:100D780002F001020192019A02941A6B42F00202F7
:100D88001A631B6B03F002030293029B02264FF4C3
:100D98000043012503A9CDE90336079501F0F0F9D1
:100DA80008230648079503A9CDE90336CDE905448C
:100DB80001F0E6F908B070BD0000024000040240EE
:100DC80010B5044688B01422002103A804F05CF989
:100DD80023681A4A93420DD100230093184B1A6CCA
:100DE80042F002021A641B6C03F002030093009B9A
:100DF80008B010BD134A9342FAD1114B1248002192
:100E080001911A6C42F004021A641A6C02F004028E
:100E18000192019A02911A6B42F008021A631B6B45
:100E280003F008030293029B4FF48052022303A9A4
:100E3800CDE90323079301F0A3F9D9E700040040A3
:100E48000038024000080040000C024030B504465B
:100E580089B01422002103A804F016F92268174B60
:100E68009A4229D103F50D33002501951A6B1448D0
:100E780042F002021A631A6B02F002020192019A0E
:100E880002951A6B42F004021A631B6B03F0040309
:100E980002930224029B0794032303A9CDE9033498
:100EA80001F06EF9C0230748079403A9CDE903347C
:100EB800CDE9055501F064F909B030BD00040040E2
:100EC8000004024000080240F0B514228BB004462A
:100ED80000210DEB020004F0D7F823682F4A934253
:100EE80038D12F4B2F48002400941A6C42F48012FA
:100EF8001A641A6C02F480120092009A01941A6B18
:100F080042F004021A631A6B02F004020192019A79
:100F180002941A6B42F008021A631B6B03F0080371
:100F28000293029B02274FF480530326082505A944
:100F3800CDE90537CDE9086501F022F90423CDE9AB
:100F48000537CDE907461848099505A901F018F9AC
:100F58000BB0F0BD154A9342FAD1114B1448002149
:100F680003911A6C42F400321A641A6C02F40032CB
:100F78000392039A04911A6B42F001021A631B6BE5
:100F880003F001030493049B0C2202230321CDE9FF
:100F980005230723CDE9081305A9D7E7005000402A
:100FA8000038024000080240000C024000440040A3
:100FB8000000024010B5044688B01422002103A89E
:100FC80004F062F82268144B9A4223D103F5943353
:100FD800002101915A6C114842F010025A645A6C6F
:100FE80002F010020192019A02911A6B42F001027A
:100FF8001A631B6B03F001030293029B4FF4E06238
:1010080002230321CDE903230723CDE9061303A90E
:1010180001F0B6F808B010BD001001400000024011
:10102800FEE7FEE7FEE7FEE7FEE77047704770471A
:1010380003F058B8014801F039BC00BF541900202A
:10104800034AD2F8883043F47003C2F888307047F6
:1010580000ED00E0DFF834D00D480E490E4A0023B9
:1010680002E0D458C4500433C4188C42F9D30B4A54
:101078000B4C002301E013600432A242FBD3FFF7BC
:10108800DFFF03F0DDFFFFF76DFA70470000022075
:1010980000000020F400002028510008F40000207F
:1010A80080200020FEE7D0F8D43200EB830010B592
:1010B800D0F8C04284B1D0F8C4325BB194F80002D1
:1010C800FF2807D09B6894F8012221469847FF2300
:1010D80084F80032002000E0032010BD0A230380BA
:1010E800004870478000002070B5822106460F48EE
:1010F80000F079FB012105460C4800F074FB8121C2
:1011080004460A4800F06FFB0DB11022AA711CB109
:10111800402222710022627118B14022027100221D
:10112800427143230148338070BD00BF3C0000205A
:10113800FFF7DABF70B5822106460F4800F053FB6F
:10114800012105460C4800F04EFB812104460A485F
:1011580000F049FB0DB11022AA711CB100222271C6
:101168000222627118B100220271022242714323E5
:101178000148338070BD00BF3C00002038B5D0F86E
:10118800D432B033044650F823508DB103F0F9FE41
:10119800C5F80C02D4F8D40204EB800405F50371F9
:1011A800D4F8C432D5F80402DB689847002038BD6B
:1011B8000320FCE7F8B5D0F8D46200EB86060A46AF
:1011C800D6F8C05245B301F00F0C142707FB0C07E3
:1011D800BC6994B1D0F8C8324FF0240E0EFB0C3322
:1011E8009B6CB4FBF3FC03FB1C4434B9BC61234681
:1011F800224603F012FF20460DE0D6F8C4321C69DF
:101208000027C5F81472002CF5D0D5F8080205F5AA
:101218000471A0473846F8BD0320FCE7D0F8D43263
:101228002DE9F34100EB83034FF00008D3F8C072B7
:101238008DF8058005460E46ADF80680002F6ED065
:101248000A7812F060042ED0202C64D1CC8891F852
:1012580001C00CB3120613D5D3F8C432224639465E
:101268009B6860469847F288072A28BF07223946B4
:10127800284600F02AFD4446204602B0BDE8F08129
:10128800402C28BF402487F800C287F80142224634
:10129800394600F02FFDEEE7D3F8C43222469B68AA
:1012A80060469847E8E74F780B2F34D801A353F8E6
:1012B80027F000BFED120008811200081F13000874
:1012C8001F1300081F1300081F1300081F1300082E
:1012D8001F1300081F1300081F130008031300083A
:1012E8001713000890F89C32032B14D102220DF139
:1012F800060100F0EAFC3C46BEE790F89C32032B5E
:1013080009D101220DF1050100F0DFFCB4E790F8E6
:101318009C32032BB0D03146284600F0AFFC0324A2
:10132800AAE700BF38B504460025812103F051FE25
:1013380001212587204603F04CFEA4F8785182212C
:10134800204603F046FED4F8D432E56404EB830368
:10135800D3F8C0228AB1D3F8C4325B689847D4F86E
:10136800D432B03354F8230003F014FED4F8D43246
:10137800B03344F82350C4F8BC52002038BD70B5CF
:1013880004464FF4077003F001FE054630B9D4F85F
:10139800D432B03344F82300022547E04FF40772F3
:1013A800002103F071FED4F8D432B03344F823504E
:1013B800237CC4F8BC52002B3AD14FF400730222AC
:1013C80081212046012603F0F8FD26874FF400739B
:1013D80031460222204603F0F0FD10230322A4F830
:1013E8007861A4F84E3082210823204603F0E5FDF9
:1013F800D4F8D43204EB83030026D3F8C432012195
:10140800A4F84C101B68C5F804629847D5F8042264
:10141800C5F81462C5F81862002ABDD0257C0121E0
:1014280085B94FF40073204603F000FE284670BDCE
:101438004023022281212046012603F0BEFD268793
:101448004023C5E74023204603F0F0FD3546EDE78D
:1014580039B1D0F8D43200EB8300C0F8C4120020B0
:10146800704703207047D0F8D432B03350F8233097
:101478002BB1C3F80812C3F81022002070470320CC
:101488007047D0F8D432B03350F823301BB1C3F8CA
:1014980004120020704703207047D0F8D422B032DD
:1014A80010B550F8222082B1047CD2F8042234B955
:1014B8004FF40073012103F0B9FD204610BD40230D
:1014C800012103F0B3FD0024F7E70324F5E778B121
:1014D8000023C0F8B832C0F8C432C0F8D03209B11D
:1014E800C0F8B412012380F89C32027003F008BDE2
:1014F8000320704713B500230446ADF8063081B1C8
:10150800CB6AC0F8B81223B10DF106009847C4F8A9
:10151800D002D4F8D8320133C4F8D832002002B04F
:1015280010BD0320FBE703F03FBDD0F8B8320BB184
:101538001B6818471846704708B5D0F8B8325B687A
:101548009847002818BF032008BD38B5044600F2A4
:10155800AA25284600F087FB012394F8AA12C4F8AC
:101568009432B4F8B032C4F8983201F01F03012B5A
:1015780008D0022B0CD08BB929462046BDE838404C
:1015880000F04EB929462046BDE8384000F09EBA22
:1015980029462046BDE8384000F0C7BA204601F089
:1015A8008001BDE8384003F01DBD70B504461646FD
:1015B80009BBD0F89432032B0CD1D0E957329342AF
:1015C8000AD99B1A9A42C0F85C3128BF1A4631469C
:1015D80000F09DFB002070BD90F89C32032B06D1D3
:1015E800D0F8B8321B6913B1C0F8D4129847204616
:1015F80000F095FBEEE790F89C32032BEAD1D0F887
:10160800B8329B69002BE5D00022BDE87040C0F8D5
:10161800D422184773B504461646002941D1D0F89C
:101628009422022A0FD1D0E90752954214D9AA1A56
:101638000191C261314600F055FB019B1A461946DB
:10164800204603F0F3FC94F8A03213B1002384F889
:10165800A032002002B070BD0ED1826995420BD82D
:10166800D0F89852AA4207D20A46019100F03AFBF4
:10167800019BC4F89832E1E794F89C32032B08D117
:10168800D4F8B832DB6823B10022C4F8D42220464B
:1016980098478021204603F0A5FC204600F04AFB2D
:1016A800D1E790F89C32032BD3D1D0F8B8325B69DC
:1016B800002BCED00022C0F8D42202B0BDE8704082
:1016C8001847F8B5012380F89C32D0F8B8320021C9
:1016D8000446C0F894124160C0F8A41280F8A01221
:1016E800B3B9002600224025114601274023204691
:1016F80003F063FCA4F86471C4F860512B4600221F
:101708008021204603F059FCA78425623046F8BDA5
:101718005B68002BE5D098470028E2D00326E1E774
:1017280001740020704790F89C32DBB280F89D323B
:10173800042380F89C320020704790F89C32042BD8
:1017480002BF90F89D32DBB280F89C3200207047CF
:1017580008B590F89C22032A05D1D0F8B83213B105
:10176800DB6903B19847002008BDD0F8D422AE3217
:1017780008B550F8222042B190F89C32032B02D1D0
:10178800136A23B19847002000E0032008BD1846DB
:10179800FCE7D0F8D422AE3208B550F8222042B186
:1017A80090F89C32032B02D1536A23B1984700204A
:1017B80000E0032008BD1846FCE70020704701221E
:1017C80008B580F89C22D0F8B8220AB9002008BDD4
:1017D8005268017990470028F8D00320F7E70020E5
:1017E80070470020704710B5428803789A420AD99A
:1017F8000478204423444478052C9BB2F6D184789D
:101808008C42F3D110BD0020FCE710B580210446BE
:1018180003F0E8FB20460021BDE8104003F0E2BBDE
:101828002DE9F3410D7805F06005202D04460E469C
:1018380014D0402D12D0002D40F00A814F78092F86
:1018480000F20681DFE817F00B01340104012301DF
:101858000401860016000401F300A200D4F8D43273
:10186800AE33314654F823309B68204602B0BDE8B9
:10187800F04118470023ADF806304B881A0A013AA0
:10188800062A37D8DFE802F0041C293636515B00F7
:10189800D0F8B4321B68207C0DF106019847F28815
:1018A800002A00F00181BDF806301BB39A4228BF18
:1018B8001A46ADF806200146204600F006FA1CE05C
:1018C800027CD0F8B83232B99B6A0DF1060098470D
:1018D80002234370E3E7DB6AF7E7DBB2052B09D89D
:1018E800DFE803F0030F13171B1FD0F8B4325B684F
:1018F800002BD0D12046FFF788FF284602B0BDE86C
:10190800F081D0F8B4329B68F2E7D0F8B432DB68E3
:10191800EEE7D0F8B4321B69EAE7D0F8B4325B6975
:10192800E6E7D0F8B4329B69E2E7037C002BE1D10B
:10193800D0F8B8320DF106005B6B9847AFE7037C2F
:10194800002BD7D1D0F8B8320DF106001B6B9847A1
:101958000723BEE78B88002BCCD1CB88002BC9D1BD
:101968004E887F2EC6D890F89C32032BC2D0F1B295
:1019780080F89E1203F048FB204600F0D0F91EB113
:10198800022384F89C32B8E70123FAE78E784E4F99
:10199800012E3E7003D9FFF738FF0325ADE790F815
:1019A8009C32022B5FFA83F809D0B8F1030F18D0E4
:1019B800FFF72BFF39782046FFF7BEFDEDE7002E35
:1019C80072D001214160FFF7B0FD0546204625B1E0
:1019D800FFF71BFF84F89C828FE700F0A0F9032330
:1019E800CFE75EB9022380F89C3246603146FFF7A4
:1019F800A3FD204600F093F935467EE741680129AA
:101A080052D0C9B2FFF798FD397861602046FFF7D8
:101A18008CFD0646002847D02046FFF7F6FE2179C0
:101A28002046FFF789FD022384F89C32E4E7CA8840
:101A3800012A7FF45FAF90F89C120229CBB205D837
:101A480033B10146002341F8083F35E7032B04D0A2
:101A58002046FFF7DAFE00254FE7011D2CE790F836
:101A68009C32013B022BF3D8CB88022B7FF442AF88
:101A78000123C360D0F8A4320BB10323C360022250
:101A880004F10C01204600F020F93D4635E74B886B
:101A9800012B02D1C4F8A43206E0022B7FF42AAF4E
:101AA8008B881B0A80F8A032204600F038F924E71A
:101AB80090F89C32013B022BCAD84B88012B7FF44B
:101AC8001CAF0023E6E700BF7004002070B50B7858
:101AD80003F06002402A04460E4601D05B061FD47C
:101AE80094F89C32013B022B1AD8317901292046FF
:101AF80017D8FFF774FE88B9D4F8B8329B686BB171
:101B0800C4F8D4023146204698470546F3881BB9E5
:101B180015B9204600F003F9284670BD0325F5E7FE
:101B28002046FFF772FE0025F6E770B50B788A8825
:101B38000E7903F06003202B04460D4653D0402B4A
:101B480051D063BB4B78012B3BD0032B20D033BB48
:101B580090F89C32022BD9B261D003291FD106F02C
:101B68000F0312F0800F4FF0140202FB030365D03D
:101B78009B8CA3B106F07F05013505EB850500EBCD
:101B8800850516F07F0365D12B600222294651E0B6
:101B980090F89C32022BDAB237D0032A03D02046C1
:101BA800FFF733FE0BE04B8833B9710604D0EB889E
:101BB80013B9314603F016FA204600F0B0F80020B9
:101BC80070BD90F89C32022BDAB21ED0032AE6D1FF
:101BD8004B88002BF3D1730602D0314603F00BFA81
:101BE800204600F09CF831462046FFF7FAFD002811
:101BF800E5D1D4F8B832C4F8D4029B68002BDED003
:101C080029462046BDE8704018477206C7D03146BD
:101C180003F0E8F98021204603F0E4F9CFE77106E4
:101C2800BDD113064CBF00F1140100F5AA710023C1
:101C38000B600222204600F048F8C0E7B3F8643190
:101C4800002BACD006F07F05142303FB050505F532
:101C5800AA7596E73146204603F080F908B10123BA
:101C680092E7286091E70B7803704B7843704B88B4
:101C780043808B888380CB88C380704710B58021D0
:101C8800044603F0AFF920460021BDE8104003F0F8
:101C9800A9B930B588B10024013823460134055D5F
:101CA800002DFAD1DBB201335B0013800B700323E4
:101CB8004B70022310F8012F02B930BDCA545A1CC8
:101CC800D2B202338D54DBB2F4E710B502241346C6
:101CD800C0E90622C0F894420A46002103F09DF9A3
:101CE800002010BD08B513460A46002103F095F9F7
:101CF800002008BD10B503241346C0E95622C0F8D9
:101D080094420A46002103F091F9002010BD08B55D
:101D180013460A46002103F089F9002008BD08B5DA
:101D280004220023C0F8942219461A4603F075F9D4
:101D3800002008BD08B505220023C0F894221946E2
:101D48001A4603F073F9002008BD000038B50446B0
:101D5800002800F09B80056C25B9FEF7B9FE656484
:101D680084F83C50236CDB0600F18E80236C23F44E
:101D7800885323F0020343F002032364444B5A6858
:101D880022F440325A605A6861680A435A602368EC
:101D980021695A6822F480725A605A6842EA01221C
:101DA8005A605A68A16822F040725A605A680A4319
:101DB8005A609A68E16822F400629A609A680A4355
:101DC8009A603449A26A8A4252D0996821F07061B7
:101DD800996099680A439A609A68E16A22F04052C9
:101DE8009A609A680A439A609A6822F002029A6096
:101DF8009A68217E42EA41029A6094F82020002ADB
:101E08003ED05A68616A42F400625A605A6822F405
:101E180060425A605A68013942EA41325A60DA6AC5
:101E2800E16922F47002DA62DA6A013942EA01529F
:101E3800DA629A6822F400729A609A6894F830100C
:101E480042EA41229A609A68616922F480629A6043
:101E58009A68002042EA81229A606064236C23F029
:101E6800030343F001032364002384F83C3038BDA6
:101E78009A6822F070629A609A6822F04052B2E73B
:101E88005A6822F40062C9E70120EDE70120EEE775
:101E9800002301400100000FF7B50023019390F8DB
:101EA8003C30012B66D0012380F83C300D68036874
:101EB8008E68092DACB231D904EB4402DF681E3AB2
:101EC8004FF0070C0CFA02FC27EA0C07DF60DF680A
:101ED80006FA02F23A43DA604968062901EB810200
:101EE8002CD8596B053A1F26964021EA06015963FA
:101EF800596B04FA02F20A435A632C4A934207D1F7
:101F0800122D39D1D2F8043343F48003C2F80433D4
:101F1800002380F83C30184603B0F0BD1F6905EB7C
:101F280045024FF0070C0CFA02FC27EA0C071F6168
:101F38001F6906FA02F23A431A61CDE70C294FF0FD
:101F48001F010BD81E6B233A914026EA0101196341
:101F5800196B04FA02F20A431A63CEE7DE6A413AC1
:101F6800914026EA0101D962D96A04FA02F20A43C9
:101F7800DA62C2E70220CFE7A5F11003012BC7D828
:101F88000B4A5368102D43F400035360C0D1094B2A
:101F9800094A1B68B3FBF2F30A2253430193019BDE
:101FA800002BB5D0019B013BF8E700BF00200140A2
:101FB800002301400000002040420F0038B50446CD
:101FC80000286ED090F820300BB9FEF7D1FD2268BA
:101FD800136843F00103136002F090F80546236884
:101FE8005A68D10751D51A6822F002021A6002F025
:101FF80085F8054623685A68920754D4227E012A38
:102008001A680CBF42F0800222F080021A60627ED9
:10201800012A1A680CBF42F0400222F040021A60FE
:10202800A27E012A1A680CBF42F0200222F0200288
:102038001A60E27E012A1A680CBF22F0100242F0F0
:1020480010021A60227F012A1A680CBF42F00802A7
:1020580022F008021A60627F012A1A680CBF42F057
:10206800040222F004021A60D4E902210A43216919
:102078000A4361690A43616801390A43DA61002049
:102088000123606284F8203038BD02F037F8401B25
:102098000A28A4D9636A43F400336362052384F8E9
:1020A80020300120F0E702F029F8401B0A28A1D9C6
:1020B800F0E700000749CA6822F4E062030212044C
:1020C80003F4E063120C134343F0BF6343F400339B
:1020D800CB60704700ED00E0164B30B5DC68C4F308
:1020E8000224C4F10705231D042D28BF0425062B4F
:1020F8004FF0FF338CBF033C002403FA05F521EAB7
:102108000501A34022EA0302A140002841EA020394
:10211800ACBF00F16040084A4FEA0313B8BF00F0B3
:102128000F00DBB2AABF00F56140135480F80033FA
:1021380030BD00BF00ED00E014ED00E0002808DB32
:102148004209012300F01F0003FA00F0014B43F895
:102158002200704700E100E00138B0F1807F0BD227
:102168004FF0E023054A5861F02182F8231000203F
:10217800072298611A6170470120704700ED00E05E
:102188002DE9F74FDFF8A891674A00230D6801246D
:102198009C4004EA050CAC4340F0B1804D6805F062
:1021A80003044FEA43080326671E06FA08F6012FC0
:1021B8006FEA060634D8876807EA060ECF6807FA7A
:1021C80008F747EA0E078760476827EA0C0EC5F349
:1021D80000179F4047EA0E074760C76807EA060EE0
:1021E8008F6807FA08F747EA0E07022CC76019D16B
:1021F8004FEAD30A00EB8A0A03F0070BDAF82070DB
:102208004FEA8B0B4FF00F0E0EFA0BFE27EA0E0E5D
:102218000F6907FA0BF747EA0E07CAF8207001E0C2
:10222800032CDAD1076804FA08F43E40264315F473
:10223800403F066063D04FF0000ACDF804A0D9F8FB
:1022480044603A4C46F48046C9F84460D9F8446082
:1022580006F480460196019E23F0030606F18046A7
:1022680006F59C3603F0030ED6F808804FEA8E0E6A
:102278000F2707FA0EF7A04228EA070746D004F509
:102288008064A04244D004F58064A04242D004F5A2
:102298008064A04240D004F58064A0423ED004F59A
:1022A8008064A0423CD004F58064A0423AD004F592
:1022B8008064A0420CBF0724082404FA0EF43C43AF
:1022C800B46094686FEA0C06EF0254BF34404CEADD
:1022D80004049460D468AF0254BF34404CEA040448
:1022E800D4605468AF0354BF34404CEA04045460CB
:1022F8001468ED0354BF34404CEA040414600133FD
:10230800102B7FF443AF03B0BDE8F08F5446D4E7F9
:102318000124D2E70224D0E70324CEE70424CCE743
:102328000524CAE70624C8E7003C01400000024033
:10233800003802400AB1816170470904FBE70000D8
:1023480070B5044608B9012070BD90F83D3003F01F
:10235800FF021BB980F83C20FEF73EFC242384F8DA
:102368003D3023681A6822F001021A601A6842F4A4
:1023780000421A601A6822F400421A6001F05CF800
:102388003F4B65689D4294BF3E4B3F4B98428CBF84
:1023980000230123002BD6D12268394E53683B49CC
:1023A800B0FBF1F123F03F030B43B542536088BF04
:1023B8004FF49676136A88BF714323F03F0384BFB6
:1023C8004FF47A76B1FBF6F1013119431162D16904
:1023D800431E2B4821F44F41854221F0FF0132D89A
:1023E8006D0040F6FC70B3FBF5F30133034242D0B5
:1023F800C3F30B030B43D361D4E9073011680343DC
:1024080021F0C0010B4313609168D4E9030321F460
:102418000341034321F0FF010B439360D4E90530E6
:10242800D168034321F0FF010B43D360136843F0E5
:102438000103136000202023206484F83D302063CA
:1024480084F83E0080E7A06850B905EB4505B3FB6A
:10245800F5F30133C3F30B037BB143F40043C9E73E
:1024680019204543B3FBF5F30133C3F30B0323B141
:1024780043F44043BEE70423BCE70123BAE700BFA7
:10248800A08601007F841E00FF083D0040420F0027
:10249800006870B51204446A19B9224382620020A8
:1024A80070BD836A4D1E04EB134400235E1CDBB22F
:1024B8009D4205D83F3100EB810022434260EEE7A0
:1024C800403300EB83035B6804EB13443346EDE7CA
:1024D80003680020596270477047F0B504468BB016
:1024E80060B390F8BD34056803F0FF021BB980F8AB
:1024F800BC2402F069FC032384F8BD34EB6B254649
:1025080013F4807355F8100B08BF236101F0ECFE3B
:102518000FCD6E460FC60FCD0FC695E8030086E8AF
:1025280003002546271D97E80E0055F8100B01F00B
:1025380025FE064620B1022384F8BD3401254EE06D
:102548000146206801F0D6FE3046D4F804C024269F
:102558004FF0010E0146C2B2944500F101001CD8AB
:10256800002324261946D8B2844503F1010322D852
:102578000FCD6E460FC60FCD0FC695E8030086E84F
:10258800030097E80E00206801F036FF0123054696
:10259800F0B1022284F8BD24D0E706FB0243C3E968
:1025A800121183F83DE083F83C20A3F8442083F817
:1025B80040105965CFE706FB0042C2E9A21182F834
:1025C8007D1282F87C0282F88012C2F89412CAE75F
:1025D80084F83800206884F8BD3402F0B5FA28463B
:1025E8000BB0F0BD10B50446006894F8BC34012B5C
:1025F80015D0012384F8BC34A36A012B06D1A36942
:10260800012B1EBF836B43F48033836301F066FEA6
:10261800206802F08BFA002084F8BC0410BD022068
:10262800FCE710B590F8BC24012A04460BD001221F
:1026380080F8BC2480F83810006802F067FA00209F
:1026480084F8BC0410BD0220FCE770B501F00F0649
:1026580006EBC60411F0800F05464FEA84044FF0DC
:1026680024001FD000FB065004F13C01012429443A
:1026780080F83D40CA604A780E700B7102B10E8135
:10268800022B04BF00234B7195F8BC34012B12D0E8
:102698000123286885F8BC3401F071FF002085F813
:1026A800BC0470BD00FB065004F51F7100242944CA
:1026B80080F87D42DEE70220F3E710B5044601F01A
:1026C8000F0000EBC00311F0800F4FEA83034FF0B7
:1026D800240216D002FB004203F13C0101232144ED
:1026E80082F83D30087094F8BC34012B12D00123D5
:1026F800206884F8BC3401F081FF002084F8BC0411
:1027080010BD02FB004203F51F710023214482F82B
:102718007D32E7E70220F3E738B501F00F052424FE
:1027280004FB050104FB050401F51F71C4F894328C
:102738000023C4F88C22C4F89C3284F87D3284F8D3
:102748007C5203690068012B08BFC4F89022DAB2F2
:102758001DB901F0A9FF002038BD02F077F8FAE7AB
:1027680001F00F01242303FB0100D0F89C027047FD
:1027780038B501F00F05242404FB050104FB05040A
:102788003C3163650023E3650123E26484F83D304E
:1027980084F83C5003690068012B08BF2265DAB24F
:1027A8001DB901F081FF002038BD02F04FF8FAE7AB
:1027B80038B5436801F00F059D4204462CD811F046
:1027C800800F4FF024001ED000FB054200FB05419E
:1027D80001233C3182F83D3001238B700D7094F851
:1027E800BC249A421AD0206884F8BC3402F03AF922
:1027F8002DB9217C206804F2C44202F0F7F90020C8
:1028080084F8BC0438BD00FB01431A4603F51F7168
:10281800002382F87D32DFE70120F3E70220F1E7A9
:1028280038B5436801F00F029A4204462AD802EBF1
:10283800C20311F0800F4FEA83034FF0240018D031
:1028480000FB024003F13C010123214480F83D30A4
:1028580000258D700A7094F8BC34012B14D0012324
:10286800206884F8BC3402F028F984F8BC5428465F
:1028780038BD00FB024003F51F710023214480F896
:102888007D32E5E70120F3E70220F1E701F00F03CD
:1028980003EBC3030A064FEA83034CBF03F13C0171
:1028A80003F51F710144006801F07ABF2DE9F04F6C
:1028B800066889B00446304602F083F90390002880
:1028C80040F05681206802F04DF9002800F0508150
:1028D800D6F808382068C3F30D23C4F8FC3402F096
:1028E80041F9810748BF2268206842BF536903F055
:1028F8000203536102F036F9C20606F500652CD5CD
:102908002268936923F010039361D6F82080C8F3F6
:102918004343022B08F00F0740F02D8147F6F07370
:1029280018EA030F14D0242303FB0747C8F30A1936
:10293800D7F88C124A46304602F074F8D7F88C3231
:102948004B44C7F88C32D7F89C324B44C7F89C32BA
:102958002268936943F010039361206802F002F93A
:10296800030300F11A81206802F0FCF847030CD534
:10297800206802F003F92746049006F5106A4FF024
:102988000009049B002B40F0D081206802F0EAF88F
:10299800002813DA6B6823F001036B6094F8F434B1
:1029A800012B40F06B82002184F8F4142046FFF7D5
:1029B80093FD2268536903F000435361206802F0D5
:1029C800D1F801050AD5AB68DA0702D5204602F02E
:1029D8006BFA2268536903F400635361206802F0BC
:1029E800C1F8C30433D56B68206823F001036B601A
:1029F800102101F0AFFC06F510634FF67F316268D5
:102A08000398824200F24282EB6943F00113EB61C2
:102A1800236B002B00F05282D5F8843043F00B036F
:102A2800C5F884306B6C43F00B036B64D6F8003840
:102A3800217C206823F4FE63C6F8003804F2C442FF
:102A480002F0D4F82268536903F480535361206874
:102A580002F088F8870416D5206802F0B6F82068D6
:102A680001F082FDE060276800F0E0FC227B01466F
:102A7800384601F0C3FB204602F003FA2268536986
:102A880003F400535361206802F06CF8000707D57F
:102A9800204602F0F2F92268536903F008035361F3
:102AA800206802F05FF8010600F11382206802F046
:102AB80059F8C2020CD5A04606F5126901276368C9
:102AC800BB4200F21F822268536903F480135361EA
:102AD800206802F047F883022DD5D4F804E0234695
:102AE80006F5326001218E4520D993F8A4C2026808
:102AF800BCF1010F40F01C82002A80F21982D4F840
:102B0800FC7402F4803207F00107BA4240F01082E8
:102B180083F8A3C2B26942F08002B26172691706F3
:102B280000F106826B6843F400736B602268536996
:102B380003F400135361206802F014F8410007D52C
:102B4800204602F0D5F92268536903F080435361A7
:102B5800206802F007F842070AD523685D686B070A
:102B680002D5204602F0C8F9226853682B43536007
:102B780009B0BDE8F08F062B7FF4EAAE082204F214
:102B8800C441304601F04EFF242303FB0747C8F336
:102B98000A18D7F89C324344D8E6206801F0E6FFCB
:102BA80006F530680490A2460027049B002B3FF4EA
:102BB800DAAE049BD80776D55FFA87FB20685946BA
:102BC80001F0E4FF10F0010F81461CD02068216954
:102BD8000123C8F8083000F5306303EB47130129D7
:102BE800D0F840C09A6840F08B80110707D5A549F6
:102BF8008C4508D9100406D54FF4004202E091062E
:102C08005AD520229A6019F0080F21D00823C8F855
:102C1800083023689B481A6C03F5306303EB4713AD
:102C28008242996804D9090444BF4FF4004199606D
:102C38002046059202F00AF9924B059A9A4207D962
:102C48002169012904D1206804F2C44201F0CEFFB1
:102C580019F0100F1CBF1023C8F8083019F0020F24
:102C680014D073691B0642BF6B6843F480636B60C2
:102C78009AF87F32012B06D100238AF87F32594611
:102C8800204602F02DF90223C8F8083019F0200F69
:102C98001CBF2023C8F8083019F4005F1CBF4FF48C
:102CA8000053C8F80830049B5B080137049308F107
:102CB80020080AF1240A78E712F0280FA3D17149F5
:102CC8008C4501D9120497D41A69DAF89832C2F3FC
:102CD80012029B1ACAF89C326FB9D4F894222AB906
:102CE80004F2C442012101F081FF04E0D4F88C22EF
:102CF8001344C4F88C325946204602F0ADF882E7F6
:102D080061498C4507D111043FF576AF9006F2D59D
:102D180020229A60EFE7002FEDD1D4F89432002BEF
:102D2800E9D104F2C4423946DDE7049BD80740F1F3
:102D38009C805FFA89FB2068594601F030FF10F04B
:102D4800010F804620D001216B6B09F00F0201FAB8
:102D580002F223EA02036B630B46CAF808102169E2
:102D680099420DD1D7E912231344FB64B9F1000F3E
:102D780006D1636D23B9206804F2C44201F036FF1E
:102D88005946204602F071F818F0080F1CBF0823B6
:102D9800CAF8083018F0100F1CBF1023CAF8083002
:102DA80018F0400F1CBF4023CAF8083018F0020F73
:102DB80012D04946304601F0CDFA97F83F30012B42
:102DC80007D14FF0000387F83F305946204602F0FC
:102DD8008BF80223CAF8083018F0800F45D0FA6D36
:102DE8007B6D9A4241D89B1ABA6C2168059193422F
:102DF80028BF134603339B08069301F5106303EBC2
:102E080049130793079B06989969FA6D7B6D89B2F8
:102E1800814228D39A420CD3059B09F00F01D3F8BD
:102E28003428012000FA01F122EA0102C3F834280B
:102E38001BE0A3EB0208BB6C0598984528BF984691
:102E480008F103039B080693237C0093F96C1FFA8F
:102E580088F35A4601F0E6FCFB6C4344FB64FB6DC7
:102E68004344FB65CEE79A42D6D2049B5B0809F13E
:102E78000109049324370AF1200A82E5204602F06A
:102E88002BF896E50A30544F0A31544F99601A6866
:102E980022F400121A60C3F80812D3F8002222F4B0
:102EA8000012C3F80022D3F8002242F00062C3F8EF
:102EB8000022039A013203922033A0E56B6943F4A0
:102EC800005343F02B036B612B6943F00B032B6119
:102ED800ACE5B36923F08003B361012704F27F28CE
:102EE8004FF024096368BB427FF6E0AD09FB07F3A6
:102EF80018F80330012B03D1F9B22046FFF7C6FCBE
:102F08000137EFE798F86430D9F80020012B09D190
:102F1800002A07DA67F07F0188F86330C9B22046D3
:102F2800FFF7B4FC013708F1240809F12009C6E5C8
:102F3800013124332030D6E52DE9F341044640B36E
:102F48000368DD0710D4236898075ED423681A073E
:102F580000F1A08023685B0700F1C080A069002809
:102F680040F0288100202BE08F4B9A6802F00C0279
:102F7800042A07D09A6802F00C02082A0BD15A6872
:102F8800510208D5884B1B689A03DCD56368002B6F
:102F9800D9D1012014E06268B2F5803F13D11A68D4
:102FA80042F480321A6001F0A9F87F4E0546336872
:102FB8009B03C8D401F0A2F8401B6428F7D903206A
:102FC80002B0BDE8F081784DB2F5A02F2B6807D18B
:102FD80043F480232B602B6843F480332B60E2E7B3
:102FE80023F480332B602B6823F480232B60002A82
:102FF800D9D101F083F806462B689F03A3D501F0C9
:103008007DF8801B6428F7D9D9E7674B9A6812F0D6
:103018000C0F07D09A6802F00C02082A11D15B68DD
:103028005E020ED4604A13689D0702D5E368012B3F
:10303800AFD11368216923F0F80343EAC103136091
:1030480084E7E268594BB2B101221A6001F056F8E0
:10305800554D06462B68980707D52B68226923F03B
:10306800F80343EAC2032B6070E701F047F8801BBE
:103078000228EFD9A3E71A6001F040F84A4E054646
:10308800336899077FF562AF01F038F8401B0228D2
:10309800F6D994E76269454B82B10122C3F8802EC4
:1030A80001F02CF8404E0546736F9F073FF552AF6D
:1030B80001F024F8401B0228F6D980E7C3F8802ED7
:1030C80001F01CF8384E0546736F98077FF542AF3C
:1030D80001F014F8401B0228F6D970E7324B1A6C3D
:1030E80012F0805228D101921A6C42F080521A6470
:1030F8001B6C03F080530193019B01272C4D2B6817
:10310800D9051BD5A368284D012B27D12B6F43F078
:1031180001032B6700F0F2FF234E054641F2883881
:10312800336F9B0739D5002F3FF418AF1E4A136C35
:1031380023F08053136411E70027DFE72B6843F47B
:1031480080732B6000F0DAFF06462B68DA05D9D4C5
:1031580000F0D4FF801B0228F7D930E7052B04D1F3
:103168002B6F43F004032B67D0E72A6F22F001028C
:103178002A672A6F22F004022A67002BCAD100F0BE
:10318800BDFF41F2883806462B6F9807CBD500F073
:10319800B5FF801B4045F7D911E700F0AFFF401B92
:1031A8004045BDD90BE700BF003802400000474248
:1031B80000700040364DAB6803F00C03082B3DD07F
:1031C800344B002202281A662BD100F097FF0646DE
:1031D8002B6899011FD4D4E907321343626A43EA82
:1031E8008213E26A43EA0263A26A5208013A43EA96
:1031F80002436B60274B264D01221A6600F07EFFC2
:1032080004462B689A013FF5ADAE00F077FF001B2E
:103218000228F6D9D3E600F071FF801B0228D7D91F
:10322800CDE600F06BFF04462B689B017FF59AAE54
:1032380000F064FF001B0228F6D9C0E601283FF41D
:10324800BFAE6B68E26903F4800191427FF4A1AEDE
:10325800216A03F03F028A427FF49BAE616A47F617
:10326800C0721A40B2EB811F7FF493AEA26A520873
:1032780003F44031013AB1EB024F7FF48AAEE26ABF
:1032880003F07063B3EB026F3FF46CAE81E600BFEE
:10329800003802400000474238B5144DAB6803F0CF
:1032A8000C03082B1FD16A686B68114813F480035C
:1032B80015BF69686C68C1F38811C4F3881418BF16
:1032C800002302F03F0214BFA1FB0001A4FB000190
:1032D800FCF776FF054B5B68C3F3014301335B00E2
:1032E800B0FBF3F038BD0248FCE700BF00380240ED
:1032F8000024F4002DE9F0410D46044610B90120E0
:10330800BDE8F081444B1A6802F007028A4228D3CC
:10331800226897072DD4D00741D43F4B1A6802F092
:103328000702AA4266D8226851076CD4130707D54A
:103338003A4A2169936823F4604343EAC1039360DE
:10334800FFF7AAFF354B364A9B68C3F30313D35CD8
:10335800D840344B1860344B186800F085FE0020C4
:10336800CEE7CAB21A701B6803F007038B42C6D1B6
:10337800CEE72A4B12F0040F1EBF996841F4E051C2
:103388009960160742BF996841F4604199602349E2
:10339800A0688B6823F0F00303438B60BBE7626887
:1033A8001E4B012A1CD11B6813F4003FA7D01B4EEB
:1033B800B36823F003031343B36000F09FFE41F2A8
:1033C80088380746B368626803F00C03B3EB820FD2
:1033D800A3D000F093FEC01B4045F3D903208FE72C
:1033E800911E01291B6802D813F0007FDEE713F055
:1033F800020FDBE7EAB21A701B6803F00703AB425F
:103408007FF47DAF8FE70549E0688B6823F4E053CC
:1034180003438B608AE700BF003C0240003802404B
:10342800B8500008000000208C000020014B1868EC
:10343800704700BF00000020044B054A9B68C3F397
:103448008223D35C034A1068D84070470038024092
:10345800C850000800000020044B054A9B68C3F3CD
:103468004233D35C034A1068D840704700380240A2
:10347800C85000080000002010B50446002855D0A8
:10348800436A002B4ED14268B2F5827F00D0C361F7
:103498000023A36294F8513003F0FF0223B984F8A3
:1034A80050202046FDF7CEFB2168A068A2690223C0
:1034B80084F851300B6823F040030B60636800F414
:1034C800044003F482730343E06800F4006003439C
:1034D800206900F002000343606900F00100034323
:1034E80002F400700343E06900F038000343206AE7
:1034F80000F080000343A06A00F4005003430B600F
:10350800636A120C03F0100302F004021A434A60C3
:10351800CB6923F40063CB6100200123606584F844
:10352800513010BD0023C0E90433B1E70120F8E7AA
:1035380030B590F83C30012B4FF0020332D080F8C0
:103548003D3003680D685C689A6824F070042C4369
:103558005C60154CA3421AD0B3F1804F17D0A4F584
:103568007C44A34213D004F58064A3420FD004F531
:103578008064A3420BD004F57844A34207D004F535
:103588007054A34203D0A4F59434A34204D14968EB
:1035980022F080020A439A60012380F83D3000231C
:1035A80080F83C30184630BD00000140036A23F023
:1035B80001030362036A70B5446882690D6822F0EA
:1035C80073022A438D6823F002032B430E4DA84251
:1035D80002D00E4EB04210D1CE6823F00803334318
:1035E800A84223F0040302D0084DA84205D1D1E92E
:1035F800055624F4407435432C43446082614A687C
:103608004263036270BD00BF000001400004014036
:10361800036A23F480730362036A70B54468C2695D
:103628000D6822F073022A438D6823F4007343EA7D
:103638000523114DA84203D005F58065A84214D191
:10364800CD6823F4006343EA05230B4DA84223F415
:10365800806303D005F58065A84206D1D1E90556F7
:1036680024F44054354344EA05144460C2614A686E
:10367800C263036270BD00BF00000140036A23F407
:1036880080530362036A30B54468C2690D6822F446
:10369800E64242EA05228D6823F4005343EA0533E3
:1036A800084DA84203D005F58065A84204D14D69AC
:1036B80024F4804444EA85144460C2614A68026480
:1036C800036230BD0000014070477047304A03680C
:1036D800904212D0B0F1804F0FD0A2F57C429042B8
:1036E8000BD002F58062904207D002F580629042CA
:1036F80003D002F57842904219D14A6823F070034A
:103708001343234A904229D0B0F1804F26D0A2F526
:103718007C42904222D002F5806290421ED002F58F
:10372800806290421AD002F57842904216D0194A27
:10373800904213D002F5806290420FD002F5806269
:1037480090420BD0A2F59832904207D002F58062E1
:10375800904203D002F58062904203D1CA6823F4F4
:10376800407313434A6923F08003134303608B6853
:10377800C3620B688362064B984203D003F58063EB
:10378800984201D10B69036301234361704700BF6D
:10379800000001400040014010B5044630B390F8E5
:1037A8003D3003F0FF021BB980F83C20FDF708FB11
:1037B8000223206884F83D30211DFFF787FF01238D
:1037C80084F84630002084F83E3084F83F3084F88E
:1037D800403084F8413084F8423084F8433084F82B
:1037E800443084F8453084F83D3010BD0120FCE7B2
:1037F80010B5044630B390F83D3003F0FF021BB912
:1038080080F83C20FFF760FF0223206884F83D30F1
:10381800211DFFF75BFF012384F84630002084F860
:103828003E3084F83F3084F8403084F8413084F8E2
:10383800423084F8433084F8443084F8453084F8C2
:103848003D3010BD0120FCE710B5044630B390F8B8
:103858003D3003F0FF021BB980F83C20FFF735FF2D
:103868000223206884F83D30211DFFF72FFF012334
:1038780084F84630002084F83E3084F83F3084F8DD
:10388800403084F8413084F8423084F8433084F87A
:10389800443084F8453084F83D3010BD0120FCE701
:1038A800F8B50D46044600284DD090F83D3003F099
:1038B800FF021BB980F83C20FDF73AFA21460223A3
:1038C80084F83D3051F8040B836823F4804323F0D7
:1038D80007038360FFF7FAFE20682A688668836911
:1038E800A968076A1643AA6923F4407341EA0221CA
:1038F80023F003030B4323F47C422B69E9691B0182
:1039080043EA0123E9680B43296A22F0FC0243EAEF
:1039180001331343696927F0AA026F68866047EA92
:103928000117836117430123076284F8463000209A
:1039380084F83E3084F83F3084F8423084F84330CD
:1039480084F83D30F8BD0120FCE70000036A23F04D
:1039580010030362036A70B5446882690D6822F433
:10396800E64242EA05228D6823F0200343EA051364
:10397800104DA84203D005F58065A84214D1CD6842
:1039880023F0800343EA05130A4DA84223F04003BD
:1039980003D005F58065A84206D1D1E9055624F47F
:1039A8004064354344EA8504446082614A6882631E
:1039B800036270BD0000014070B590F83C30012BE7
:1039C800054653D00120082A85F83C003DD006D88A
:1039D800C2B1042A28D0002385F83C3070BD0C2AD7
:1039E800F9D12868FFF74AFE2B680969DA6942F4B9
:1039F8000062DA61DA6922F48062DA61DA6942EA3D
:103A0800012231E02868FFF7D1FD2B6809699A691E
:103A180042F008029A619A6922F004029A619A694E
:103A28000A439A610020D6E72868FFF78FFF2B68C2
:103A380009699A6942F400629A619A6922F480627B
:103A48009A619A6942EA0122EBE72868FFF7E0FDEC
:103A58002B680969DA6942F00802DA61DA6922F04A
:103A68000402DA61DA690A43DA61DBE70220B5E7C2
:103A780070B5046A1A4E24F001040462B0428469E5
:103A8800056A29D0B0F1804F26D0A6F57C46B04211
:103A980022D006F58066B0421ED006F58066B04298
:103AA8001AD006F57846B04216D006F57056B042E0
:103AB80012D0A6F59436B0420ED044F001021B0194
:103AC800DBB222F0F0021A4301F00A0125F00A03E2
:103AD80019438261016270BD24F003042243EEE7BA
:103AE80000000140F8B590F83C30012B05460C4623
:103AF80000F08980012085F83C009AB9CB682868D5
:103B0800D1E90012FFF7B4FF2B68A1689A6922F087
:103B18000C029A619A690A439A610020002385F889
:103B28003C30F8BD042A23D12B681E6A26F0100603
:103B3800D1E90027C9681E6298691E6A20F440709E
:103B480040EA0720090320F4704089B212010143BA
:103B580002F0A00226F0A000024399611A629A6955
:103B6800A16822F440629A619A6942EA0122D3E785
:103B7800082A22D12B681E6A26F48076D1E9002013
:103B8800C9681E62DF691E6A27F003073843090106
:103B980020F0F000C9B21202014302F4206226F4B8
:103BA80020600243D9611A62DA69A16822F00C0226
:103BB800DA61DA690A43DA61AFE70C2AAED12B6819
:103BC8001E6A26F48056D1E90027C9681E62D869A2
:103BD8001E6A20F4407040EA0720090320F4704070
:103BE80089B21203014302F4204226F42040024322
:103BF800D9611A62DA69A16822F44062DA61DA6985
:103C080042EA0122D7E702208BE710B58468114306
:103C180024F47F4441EA03232343836010BD70B535
:103C280090F83C30012B04464FF0020300F09180DD
:103C3800012280F83D3080F83C200068836823F436
:103C48007F4323F0770383600B68602B52D033D80F
:103C5800402B67D016D8202B0DD00AD833F010018E
:103C680009D0012384F83D30002384F83C30104605
:103C780070BD302BF5D1826822F07002134343F0F7
:103C8800070317E0502BECD14A68CE68016A056A31
:103C980025F001050562836921F00A0123F0F0038C
:103CA80043EA06130A4383610262836823F07003C0
:103CB80043F05703836011E0B3F5805F0ED0B3F58E
:103CC800005F0DD0702BCCD1CB68D1E90121FFF773
:103CD8009CFF2268936843F0770393600022C0E753
:103CE800CB68D1E90121FFF790FF2268936843F47C
:103CF8008043F2E74D68CE68016A21F01001016245
:103D08008269036A22F4704223F0A00343EA051390
:103D180042EA063282610362836823F0700343F04B
:103D28006703C7E74A68CE68016A056A25F0010596
:103D38000562836921F00A0123F0F00343EA0613C0
:103D48000A4383610262836823F0700343F04703E8
:103D5800B0E71A468BE70068826838B54B680C688C
:103D680022F070021A4322F007022243502B82608D
:103D78002CD010D8402B19D04BD8202B14D005D8D4
:103D880033F0100314BF0120002038BDB3F1300018
:103D980018BF0120F9E7602B28D0702B39D10B69A7
:103DA800D1E90221FFF731FF0020EEE7052C30D0E2
:103DB800026A036A096923F001030362836923F035
:103DC800F00343EA011383610262EDE78A680D6933
:103DD800016A046A24F001040462836921F00A017B
:103DE80023F0F00343EA05130A43ECE78C680D69F6
:103DF800016A21F0100101628269036A22F47042AB
:103E080023F0A00342EA053243EA04138261036205
:103E1800CAE70120B9E738B590F83C30012B0446D1
:103E28004FF002031CD0012580F83C5080F83D304B
:103E3800FFF791FF30B1002384F83D5084F83C30FF
:103E4800284638BD2368DA6822F04002DA60DA686A
:103E580022F48042DA6084F83D5084F83C00F0E7B0
:103E68001846EEE70268C168136923F440530B4310
:103E780070B51361054683680069D16803436869B2
:103E88000343E86921F4164121F00C0103430B4375
:103E9800D3605369A96923F440730B4353611F4BE3
:103EA8009A4203D003F580639A4223D1FFF7D4FAEC
:103EB800EB691921B3F5004FD5E90046A0FB0101D4
:103EC8001BD1B2194FF000035B41FCF779F964216B
:103ED800B0FBF1F501FB1503DB003233B3FBF1F363
:103EE80003F007025B0002EB051203F4F8731344B6
:103EF800A36070BDFFF7A0FADAE7B200B30FFCF7D2
:103F08005FF96422B0FBF2F102FB11031B013233AB
:103F1800B3FBF2F303EB0113EAE700BF0010014023
:103F280010B5044640B390F83D3003F0FF021BB9CA
:103F380080F83C20FCF7C8FF2268242384F83D3031
:103F4800D36823F40053D3602046FFF78BFF236820
:103F58001A6922F490421A615A6922F02A025A61B7
:103F6800DA6842F40052DA6000202023206484F8E2
:103F78003D3084F83E3010BD0120FCE738B50446DA
:103F880000286CD090F83D3003F0FF021BB980F890
:103F98003C20FDF70FF82268022384F83D30D368EF
:103FA80023F00C03D360D4E906301169034321F4EC
:103FB8007C510B43216A20690B43E1680B4343F4AE
:103FC80000631361D168A36821F4164121F00C0144
:103FD80003430B4361690B4343F40043D3605369C4
:103FE80023F4407353611F4B9A4203D003F5806357
:103FF8009A4231D1FFF730FA6268192192184FF0CE
:1040080000035B41A0FB0101FCF7DAF86421B0FB77
:10401800F1F501FB1503DB003233B3FBF1F303F0D9
:1040280007025B00216802EB051203F4F8731344DE
:104038008B6023681A6922F480421A615A6922F057
:104048002A025A61DA6842F40052DA600020012339
:10405800206484F83D3038BDFFF7EEF9CCE7012045
:10406800F9E700BF0010014038B50E4A0E4B05466F
:1040780018784FF47A73B3FBF0F31068B0FBF3F0E1
:10408800FEF76AF8044658B90F2D09D802462946A2
:104098004FF0FF30FEF720F8044B20461D6038BD76
:1040A8000120FCE7000000208A0000208C0000208E
:1040B80008B50B4B1A6842F400721A601A6842F489
:1040C80080621A601A6842F480721A600320FDF751
:1040D800F1FF0F20FFF7C8FFFCF7DEFC002008BD4A
:1040E800003C0240034A044B11681B780B441360E0
:1040F800704700BF740400208A000020014B186834
:10410800704700BF7404002038B50446FFF7F6FF77
:10411800631C1CBF054B1B78054618BFE418FFF746
:10412800EDFF431BA342FAD338BD00BF8A0000202D
:1041380082B00023104A0193019B01330193019B34
:10414800934216D80369002BF6DA0023019303691A
:10415800094A43F001030361019B01330193019B69
:10416800934206D8036913F00103F5D1184602B04B
:1041780070470320FBE700BF400D030084B038B54B
:1041880005AD85E80E000A9B012B044625D1836BFB
:1041980023F480338363C36823F4840323F0400348
:1041A800C360C36823F44013C360119B012B02BF93
:1041B800C36843F48013C360FFF7BAFF089B012B61
:1041C80007D1A36843F00603A360A36843F0200364
:1041D800A360BDE8384004B07047C36843F04003AB
:1041E800C360FFF7A5FF0E9B23B9A36B43F480338D
:1041F800A363E3E7A36B23F48033F9E7022A4AD1E8
:10420800274B284A0B44934239D9274B274A0B445A
:10421800934236D9264AA1F57403A3F51053934265
:1042280031D9244AA1F18373A3F5E74393422CD3F0
:10423800214B224A0B44934229D9214B214A0B4452
:10424800934226D3204B214A0B44934223D3204A3E
:10425800A1F1B773A3F5585393421ED31D4B1E4AC1
:104268000B44934234BF07230623C26822F47052DA
:10427800C260C26842EA8323C360002070470F23EC
:10428800F3E70E23F1E70D23EFE70C23EDE70B230C
:10429800EBE70A23E9E70923E7E70823E5E700BF97
:1042A800405327FFFF340C00401E1BFF3F420F0006
:1042B8007F4F120020D6130060B6E5FE5FE31600BC
:1042C80000D3CEFE40771B00C05BB3FEC091210037
:1042D80020753800E05459FEE09C4100836843F0A3
:1042E8000103836000207047836823F00103836023
:1042F8000020704738B5C368012923F0C04305463C
:10430800C36010D1C36843F00053C3600024012088
:10431800FFF7FAFE6B69D90704F1010415D4322CB2
:10432800F5D1012038BD0029FBD1C36843F0804393
:10433800C3600C460120FFF7E7FE6B69DA0704F15A
:10434800010402D5322CF5D1EBE7A4F1320358422F
:104358005841E7E782B00023104A0193019B0133DB
:104368000193019B934216D80369002BF6DA890161
:10437800002341F02001094A01930161019B0133A7
:104388000193019B934206D8036913F02003F5D1EA
:10439800184602B070470320FBE700BF400D03003A
:1043A80082B000230F4A0193019B01330193019BC3
:1043B800934214D80369002BF6DA00230193094AC3
:1043C80010230361019B01330193019B934206D89B
:1043D800036913F01003F5D1184602B070470320A3
:1043E800FBE700BF400D0300D0F800381943C0F8C0
:1043F800001800207047000084B02DE9F8430446F7
:1044080009A880E80E00139D00230E46194603F103
:10441800400204EB820201330F2B5160F7D104F5FF
:104428000067002D6CD17B6843F002037B60A36BAF
:1044380043F40013A363A36B23F40023A363A36BC8
:1044480023F48023A3630023C4F8003ED4F8003883
:10445800C4F800380E9B012B5CD10B99002957D169
:104468002046FFF7C1FF10212046FFF773FF0146E2
:104478002046FFF795FF0843C0B2002300383B6190
:1044880018BF01207B6104F51062FB6119464FF0EB
:10449800904C4FF0006E4FF67F38B3423CD100226B
:1044A80004F5306311464FF0904C4FF0006E4FF614
:1044B8007F38B24243D13B6923F480733B610023C8
:1044C800A3616FF0804363610C9B1BB9A36943F040
:1044D8001003A361A269234B1343A3610F9B1BB174
:1044E800A36943F00803A361012D01BFA36943F049
:1044F800804343F00403A361BDE8F84304B0704768
:10450800A36B23F40013A363A36B43F4002399E77D
:104518001946A5E70321A3E7D2F80090B9F1000FE7
:104528000BDA3BB9C2F800E011610133C2F8088028
:104538002032B2E7C2F800C0F6E71160F4E7D3F81A
:104548000090B9F1000F0BDA3AB9C3F800E019612D
:104558000132C3F808802033ABE7C3F800C0F6E7A0
:104568001960F4E700383C80D0F8083813F00600EA
:1045780004D013F0020F14BF02200F20704730B58B
:104588000D78012405F00F039C404B7800F500627C
:10459800012B00EB4510D36918D11C43D461D0F826
:1045A80000391A0410D4CA68D0F80049C2F30A03C3
:1045B8000A79234343EA824343EA855343F080530D
:1045C80043F40043C0F80039002030BD43EA0444F6
:1045D800D461D0F8003B1B04F6D4CB68D0F8002B8C
:1045E800C3F30A0313430A7943EA824343F080532F
:1045F80043F40043C0F8003BE6E7000010B50A7832
:104608004978012900EB421300F5006002F00F021F
:1046180022D1D3F8001900290BDAD3F8001941F098
:104628000061C3F80019D3F8001941F08041C3F8BC
:104638000019C46B012101FA02F224EA0204C463DE
:10464800C16921EA0202C261D3F80019144A0A407A
:10465800C3F80029002010BDD3F8001B00290BDA8D
:10466800D3F8001B41F00061C3F8001BD3F8001B0E
:1046780041F08041C3F8001BC46B4FF4803101FA4C
:1046880002F224EA0204C463C16921EA0202C26197
:10469800D3F8001B034A0A40C3F8002BDAE700BF2F
:1046A800007833EC0078F3EF4B78DFF8F0C0F0B522
:1046B8000E788D69384F012B00EB461446D104F56E
:1046C8001063BDB91D692F401F611D6945F40025A0
:1046D8001D611D6905EA0C05012A1D6123D14A697E
:1046E80002B15A61D4F8003943F00443C4F80039E0
:1046F8000020F0BDD3F810E00EEA0C0CC3F810C08F
:10470800D3F810C00CEA07071F61CF68AF421D69D4
:1047180038BF8F6145F400251D618D691F69C5F398
:1047280012053D43D8E7D4F8003943F00443C4F8F0
:1047380000398B69002BDBD0D0F8342806F00F063F
:104748000123B3401343C0F83438D1E7D4F8100B31
:1047580000EA0C00C4F8100BD4F8100B384004F52C
:1047680030631861C86805B188611D69C86145F47E
:1047780000251D611D69C0F312002843012A186134
:1047880002D10A6902B15A61D4F8003B43F00443EC
:10479800C4F8003BACE700BFFFFF07E00000F8FFEC
:1047A80082B000234A7801930B78012A4FEA431319
:1047B8001ED100F51060C118C258002A02DB002083
:1047C80002B07047C25842F00062C250C25842F06C
:1047D8008042C25042F21072019B01330193019B47
:1047E800934201D90120EBE70B68002BF4DBE6E7E5
:1047F80000F53060C118C258002AE0DAC25842F009
:104808000062C250C25842F08042C25042F2107256
:10481800019B01330193019B9342E3D80B68002B62
:10482800F6DBCCE710B59DF8084044B903330132F4
:104838009B0800EB023001EB83038B4201D100207F
:1048480010BD51F8042B0260F7E700002DE9F34191
:104858004D780F788B690E79DFF8BCC1DFF8BCE1C1
:10486800012D00EB471440F08E8004F51065D5F853
:1048780010806BBB08EA0C0CC5F810C0D5F810C046
:104888004CF4002CC5F810C0D5F810C00CEA0E0E78
:10489800C5F810E0012A4ED14B6903B16B61012EB6
:1048A8000CD1D0F8083813F4807FD4F800390CBF45
:1048B80043F0005343F08053C4F80039D4F800396A
:1048C80043F00443C4F80039002002B0BDE8F08189
:1048D80008EA0E0EC5F810E0D5F810E00EEA0C0C48
:1048E800D1F80CE0C5F810C00EEB030C0CF1FF3C3E
:1048F800BCFBFEFEDFF828C1D5F810800CEACE4CD0
:104908004CEA080CC5F810C0D5F810E0C3F3120C37
:104918004CEA0E0C012EC5F810C0BBD1D5F810C05A
:104928002CF0C04CC5F810C0D5F810C04CF0005C95
:10493800C5F810C0AEE7D4F80059012E45F004457B
:10494800C4F800590BD0002BBED0D0F8343807F08B
:104958000F02012797401F43C0F83478B4E7D0F816
:10496800085815F4807FD4F800590CBF45F000555D
:1049780045F08055C4F80059009209699BB23A463F
:10498800FFF750FFA0E7D4F8105B05EA0E05C4F85E
:10499800105BD4F8105B05EA0C0504F530673D613F
:1049A800CD681BBB3B69C5F312051D433D613B69DF
:1049B80043F400233B61012A02D10B6903B17B61F7
:1049C800012E0CD1D0F8083813F4807FD4F8003BBE
:1049D8000CBF43F0005343F08053C4F8003BD4F8B5
:1049E800003B43F00443C4F8003B6DE72B44DFF879
:1049F80030C0D7F810E0013BB3FBF5F39BB25D4341
:104A08000CEAC34343EA0E03CD613B613B69C5F33E
:104A180012051D433D61CEE7FFFF07E00000F8FFE8
:104A28000000F81F034670B59008002402F0030246
:104A380003F58055844210D301EB800062B103F581
:104A480080531C680023D90024FA01F1C1540133B2
:104A580099B28A42F7D1104470BD2E6841F824609B
:104A68000134E7E74A780B78012A00EB431012D1AA
:104A7800D0F80029002A06DB2BB1D0F8003923F042
:104A88008043C0F80039D0F8003943F40013C0F867
:104A9800003900207047D0F8002B002A06DB2BB124
:104AA800D0F8003B23F08043C0F8003BD0F8003B2F
:104AB80043F40013C0F8003BEBE70B784A7800EBAF
:104AC80043100B79012AA3F10203DBB20FD1D0F80E
:104AD8000029012B22F40012C0F8002905D8D0F8CB
:104AE800003943F08053C0F8003900207047D0F8EF
:104AF800002B22F40012012BC0F8002B9EBFD0F827
:104B0800003B43F08053C0F8003BEEE7D0F8003894
:104B180023F4FE63C0F80038D0F80038090101F426
:104B2800FE611943C0F8001800207047D0F8003E15
:104B380023F00303C0F8003ED0F8043823F0020342
:104B4800C0F8043800207047D0F8003E23F0030373
:104B5800C0F8003ED0F8043843F00203C0F8043827
:104B6800002070474269806910407047D0F81838B3
:104B780000F50060C0691840000C7047D0F818387C
:104B880000F50060C069184080B2704700EB411121
:104B980000F50060D1F8082B40691040704710B547
:104BA800D0F81048D0F8343800EB411001F00F016C
:104BB800CB4000F51060DB018068DBB2234318406E
:104BC80010BD406900F001007047D0F8003923F4A7
:104BD800FF6323F00703C0F80039D0F8043843F422
:104BE8008073C0F8043800207047000030B5056CA9
:104BF800104CA54200F5306303D9D0F8004B002CC7
:104C080016DB00241C611C6944F400241C611C6927
:104C180044F018041C611C69012944F0C0441C615B
:104C280001BF5A61D0F8003B43F08023C0F8003B35
:104C3800002030BD0A30544F08B50F490F480022F4
:104C4800FCF745FC08B1FBF725FF0D490B48FCF7BD
:104C580051FC08B1FBF71EFF0A490848FCF7F8FBAE
:104C680008B1FBF717FF0548FCF75DFC18B1BDE874
:104C78000840FBF70FBF08BDA400002078040020FF
:104C8800040000209000002000207047002070479A
:104C98000020704710B5054C01462046FCF7F1FB93
:104CA8002046FCF7FAFB002010BD00BF7804002066
:104CB80010B5064C064900222046FCF7D4FB0549EE
:104CC8002046FCF7DEFB002010BD00BF7804002062
:104CD800540F002054070020122301480B8070470E
:104CE800C0000020042301480B807047D400002036
:104CF800002370B54D1C1E46040FB0F1204F34BF81
:104D08003034373401F8134005F813600133DCB24E
:104D1800A2424FEA0010EFD870BD00001A2310B568
:104D28000B800A4BD3F8100AD3F8182A80180AD037
:104D3800D3F8144A06490822FFF7DAFF0422103193
:104D48002046FFF7D5FF034810BD00BF0070FF1FC6
:104D5800DA000020D800002010B5044C04480A46A8
:104D68002146FCF796FF204610BD00BF54170020CF
:104D7800D050000810B5044C04480A462146FCF7F8
:104D880088FF204610BD00BF54170020E3500008DC
:104D980010B5044C04480A462146FCF77AFF204621
:104DA80010BD00BF54170020F950000810B5044C7E
:104DB80004480A462146FCF76CFF204610BD00BF98
:104DC800541700200451000830B5044689B0142255
:104DD800002103A800F058F92368B3F1A04F2ED1A1
:104DE800184C194800250195236B43F001032363F0
:104DF800236B03F0010301934FF4C052019B02237C
:104E0800CDE9032303210A23CDE9061303A9FDF7FE
:104E1800B7F9636B43F0800363630295636C43F4F3
:104E280080436364636C03F48043029343202A46FF
:104E38002946029BFDF750F94320FDF77FF909B099
:104E480030BD00BF003802400000024000F2C441FB
:104E5800D0F80805FCF779BB242303FB0103D0F83D
:104E68000805D3F88C22FCF7A0BB242303FB01031D
:104E7800D0F80805DA6CFCF7CDBBD0F80805FCF7CC
:104E880067BCC16810B5044621B1022901D0FBF7FF
:104E980001FE0121D4F80805FCF742FCD4F8080506
:104EA800BDE81040FCF70DBC10B50446D0F8080565
:104EB800FCF739FC2268D2F8003E43F00103C2F83F
:104EC800003E236A23B1034A136943F006031361C2
:104ED80010BD00BF00ED00E0D0F80805FCF72DBCC0
:104EE800D0F80805FCF755BCD0F80805FCF73DBC20
:104EF800D0F80805FCF761BCD0F80805FCF75FBCE2
:104F080008B5037802462BBB13484FF0A041C0F800
:104F18000825C2F8C8020422C0E900120222C0E92A
:104F28000323C0E90623C0E90833C0E90B33FDF7C2
:104F3800D4FA08B1FBF7AEFD80210748FDF7C8FA9F
:104F4800402200210448FDF7A3FA034880220121EA
:104F5800FDF79EFA002008BD5419002011F0800FBB
:104F6800D0F8C8324FF024021BBF01F07F0102FBCA
:104F7800013102FB013191F83E0008BF91F87E0231
:104F88007047D0F8C802FDF7EBBB00000048704737
:104F9800601E00207047000003289ABF014B185C70
:104FA800032070471251000808B5D0F8C802FDF771
:104FB80019FBBDE80840FFF7EFBF10B51446D0F85D
:104FC800C8021A462346FDF740FBBDE81040FFF72C
:104FD800E3BF08B5D0F8C802FDF76FFBBDE808408D
:104FE800FFF7DABF08B5D0F8C802FDF7E1FBBDE866
:104FF8000840FFF7D1BF08B5D0F8C802FDF710FC8C
:10500800BDE80840FFF7C8BF08B5D0F8C802FDF7EB
:1050180008FBBDE80840FFF7BFBF08B5D0F8C802D5
:10502800FDF7A6FBBDE80840FFF7B6BF08B5D0F806
:10503800C802FDF771FBBDE80840FFF7ADBF0000EF
:1050480070B50D4D0D4C641BA4100026A64209D165
:105058000B4D0C4C00F020F8641BA4100026A6424F
:1050680005D170BD55F8043B98470136EEE755F871
:10507800043B98470136F2E7205100082051000808
:10508800205100082451000802440346934200D1ED
:10509800704703F8011BF9E7F8B500BFF8BC08BC76
:1050A8009E467047F8B500BFF8BC08BC9E467047DE
:1050B80000000000000000000102030406070809C0
:1050C800000000000102030453544D6963726F65C8
:1050D8006C656374726F6E6963730053544D333239
:1050E800205669727475616C20436F6D506F7274CD
:1050F8000043444320436F6E66696700434443207E
:10510800496E7465726661636500000301030000FF
:08511800E0B0FF7F0100000080
:04512000AD010008D5
:0451240089010008F5
:105128000024F400871300082D1300082512000836
:1051380000000000AF100008BD110008851100082C
:105148000000000000000000000000003D11000801
:10515800F110000839110008E510000809024300A1
:10516800020100C032090400000102020100052406
:105178000010010524010001042402020524060090
:10518800010705820308001009040100020A000053
:1051980000070501024000000705810240000000E9
:1051A8000A06000200000040010001001000000093
:1051B800B94C0008914C0008954C00089D4C00081B
:1051C800994C0008E14C0008ED4C0008614D0008BE
:1051D8007D4D0008254D0008994D0008B54D000883
:1051E800120100020202004083044057000201023B
:1051F80003010000040309041A0300000000000072
:105208000000000000000000000000000000000096
:045218000000000092
:040000050800105D82
:00000001FF
