:020000040800F2
:1000000000000220DD1600085116000857160008EF
:100010005D1600086316000869160008000000005D
:100020000000000000000000000000006F16000843
:100030007D160008000000008B16000899160008C5
:100040002D1700082D1700082D1700082D17000880
:100050002D1700082D1700082D1700082D17000870
:100060002D1700082D1700082D1700082D17000860
:100070002D1700082D1700082D1700082D17000850
:100080002D1700082D1700082D1700082D17000840
:100090002D1700082D1700082D1700082D17000830
:1000A0002D1700082D1700082D1700082D17000820
:1000B0002D1700082D1700082D1700082D17000810
:1000C0002D1700082D1700082D1700082D17000800
:1000D0002D1700082D1700082D1700082D170008F0
:1000E0002D1700082D1700082D1700082D170008E0
:1000F0002D1700082D1700082D1700082D170008D0
:100100002D1700082D1700082D1700082D170008BF
:100110002D1700082D1700082D1700082D170008AF
:100120002D1700082D1700082D1700082D1700089F
:100130002D1700082D1700082D1700082D1700088F
:100140002D1700082D1700082D170008A516000808
:100150002D1700082D1700082D1700082D1700086F
:100160002D1700082D1700082D1700082D1700085F
:100170002D1700082D1700082D170008000000009B
:080180002D1700082D170008DF
:1001880010B5054C237833B9044B13B10448AFF3C9
:1001980000800123237010BDFC0000200000000037
:1001A800E8A5000808B5034B1BB103490348AFF3A2
:1001B800008008BD0000000000010020E8A500083C
:1001C80053B94AB9002908BF00281CBF4FF0FF31B6
:1001D8004FF0FF3000F074B9ADF1080C6DE904CEB2
:1001E80000F006F8DDF804E0DDE9022304B070470A
:1001F8002DE9F047089D04468E46002B4DD18A42D2
:10020800944669D9B2FA82F252B101FA02F3C2F104
:10021800200120FA01F10CFA02FC41EA030E944095
:100228004FEA1C48210CBEFBF8F61FFA8CF708FBB6
:1002380016E341EA034306FB07F199420AD91CEB8E
:10024800030306F1FF3080F01F81994240F21C81C0
:10025800023E63445B1AA4B2B3FBF8F008FB103308
:1002680044EA034400FB07F7A7420AD91CEB04043D
:1002780000F1FF3380F00A81A74240F2078164440D
:10028800023840EA0640E41B00261DB1D440002392
:10029800C5E900433146BDE8F0878B4209D9002DF6
:1002A80000F0EF800026C5E9000130463146BDE880
:1002B800F087B3FA83F6002E4AD18B4202D38242EA
:1002C80000F2F980841A61EB030301209E46002D99
:1002D800E0D0C5E9004EDDE702B9FFDEB2FA82F2EE
:1002E800002A40F09280A1EB0C014FEA1C471FFA4C
:1002F8008CFE0126200CB1FBF7F307FB131140EA33
:1003080001410EFB03F0884208D91CEB010103F1FF
:10031800FF3802D2884200F2CB804346091AA4B2C1
:10032800B1FBF7F007FB101144EA01440EFB00FE95
:10033800A64508D91CEB040400F1FF3102D2A645FA
:1003480000F2BB800846A4EB0E0440EA03409CE799
:10035800C6F12007B34022FA07FC4CEA030C20FA46
:1003680007F401FA06F31C43F9404FEA1C4900FA66
:1003780006F3B1FBF9F8200C1FFA8CFE09FB1811E3
:1003880040EA014108FB0EF0884202FA06F20BD956
:100398001CEB010108F1FF3A80F08880884240F2A6
:1003A8008580A8F102086144091AA4B2B1FBF9F0EA
:1003B80009FB101144EA014100FB0EFE8E4508D9E5
:1003C8001CEB010100F1FF346CD28E456AD902386A
:1003D800614440EA0840A0FB0294A1EB0E01A1424F
:1003E800C846A64656D353D05DB1B3EB080261EBBD
:1003F8000E0101FA07F722FA06F3F1401F43C5E997
:10040800007100263146BDE8F087C2F12003D840CC
:100418000CFA02FC21FA03F3914001434FEA1C470E
:100428001FFA8CFEB3FBF7F007FB10360B0C43EA00
:10043800064300FB0EF69E4204FA02F408D91CEBB0
:10044800030300F1FF382FD29E422DD902386344AE
:100458009B1B89B2B3FBF7F607FB163341EA03414E
:1004680006FB0EF38B4208D91CEB010106F1FF389D
:1004780016D28B4214D9023E6144C91A46EA004694
:1004880038E72E46284605E70646E3E61846F8E626
:100498004B45A9D2B9EB020864EB0C0E0138A3E76F
:1004A8004646EAE7204694E74046D1E7D0467BE750
:1004B800023B614432E7304609E76444023842E7C8
:1004C800704700BF80B582B000AF07F085FE00F02E
:1004D8006FF800F051FC09F063FB00F0D5F800F06C
:1004E80025F900F075F900F0A7F900F0D3F900F04C
:1004F80007FA00F037FA00F089FA00F01FFB00F065
:10050800BBFB00F0E3FB00F00DFC6423FB80012241
:100518008021264803F096FEFB88184607F0CEFE99
:1005280000228021214803F08DFEFB88184607F041
:10053800C5FE01224FF480711C4803F083FEFB883E
:10054800184607F0BBFE00224FF48071174803F0ED
:1005580079FEFB88184607F0B1FE01224FF40071BE
:10056800124803F06FFEFB88184607F0A7FE00222A
:100578004FF400710D4803F065FEFB88184607F03C
:100588009DFE01224FF48061084803F05BFEFB8862
:10059800184607F093FE00224FF48061034803F0E9
:1005A80051FEFB88184607F089FEAEE700100240AE
:1005B80080B594B000AF07F120033022002118461F
:1005C8000AF006F807F10C0300221A605A609A60D4
:1005D800DA601A610023BB60294B1B6C284A43F080
:1005E80080531364264B1B6C03F08053BB60BB68BD
:1005F80000237B60234B1B68224A43F4804313602B
:10060800204B1B6803F480437B607B6803233B62B9
:100618004FF480337B620123FB6210233B63022388
:10062800BB634FF48003FB6308233B6448237B646C
:100638000223BB640323FB6407F12003184605F07B
:10064800DDF90346002B01D000F02AFC0F23FB60E4
:1006580000233B6100237B610023BB610023FB6116
:1006680007F10C030021184605F040FC0346002B57
:1006780001D000F015FC00BF5037BD4680BD00BF5B
:10068800003802400070004080B584B000AF3B469F
:1006980000221A605A609A60DA60214B214A1A6077
:1006A8001F4B00225A601E4B00229A601C4B0022EE
:1006B8001A611B4B00221A76194B002283F820205E
:1006C800174B0022DA62164B174A9A62144B002223
:1006D800DA60134B0122DA61114B002283F83020D3
:1006E8000F4B01225A610E4802F0A0FF0346002B6F
:1006F80001D000F0D5FB00233B6001237B60002381
:10070800BB603B461946064802F0D4FF0346002B5F
:1007180001D000F0C5FB00BF1037BD4680BD00BF4B
:1007280018010020002001400100000F80B584B0AE
:1007380000AF3B4600221A605A609A60DA60214B8B
:10074800214A1A601F4B00225A601E4B00229A60F1
:100758001C4B00221A611B4B00221A76194B0022EF
:1007680083F82020174B0022DA62164B174A9A6248
:10077800144B0022DA60134B0122DA61114B00227C
:1007880083F830200F4B01225A610E4802F04EFFC9
:100798000346002B01D000F083FB01233B600123BB
:1007A8007B600023BB603B461946064802F082FF87
:1007B8000346002B01D000F073FB00BF1037BD4685
:1007C80080BD00BF60010020002101400100000F32
:1007D80080B500AF164B174A1A60154B10225A60A5
:1007E800134B00229A60124B0022DA60104B002251
:1007F8001A610F4B00225A610D4B00221A760C4BDE
:1008080000225A760A4B00229A76094B0022DA76A1
:10081800074B00221A77064B00225A77044803F048
:1008280067F90346002B01D000F03AFB00BF80BDFA
:10083800A80100200064004080B500AF124B134AA5
:100848001A60114B124A5A600F4B00229A600E4BE5
:100858000022DA600C4B4FF480421A610A4B0022E6
:100868005A61094B00229A61074B0022DA61064B54
:1008780000221A62044803F0FFFC0346002B01D053
:1008880000F00EFB00BF80BDD001002000540040E6
:10089800A086010080B500AF174B184A1A60164BA6
:1008A8004FF482725A60144B00229A60124B002255
:1008B800DA60114B00221A610F4B00225A610E4B6D
:1008C8004FF480229A610C4B0022DA610A4B002215
:1008D8001A62094B00225A62074B00229A62064BA1
:1008E8000A22DA62044805F01FFD0346002B01D0F6
:1008F80000F0D6FA00BF80BD24020020003001407D
:1009080080B500AF154B164A1A60144B00225A6086
:10091800124B00229A60114B0022DA600F4B002222
:100928001A610E4B00225A610C4B00229A610B4B44
:1009380000221A62094B00225A62084B00229A626E
:10094800064B0A22DA62054805F0EEFC0346002B46
:1009580001D000F0A5FA00BF80BD00BF7C020020D6
:100968000038004080B58CB000AF07F10C0324229A
:100978000021184609F02CFE3B1D00221A605A601F
:10098800214B4FF080421A601F4B00225A601E4BC9
:1009980000229A601C4B4FF0FF32DA601A4B00229B
:1009A8001A61194B00229A610323FB6000233B6103
:1009B80001237B610023BB610023FB6100233B62B1
:1009C80001237B620023BB620023FB6207F10C0357
:1009D80019460D4805F0AFFE0346002B01D000F084
:1009E8005FFA00237B600023BB603B1D1946064865
:1009F80005F024FD0346002B01D000F051FA00BF9A
:100A08003037BD4680BD00BFD402002080B58EB00F
:100A180000AF07F1280300221A605A609A60DA6072
:100A280007F1200300221A605A603B1D00221A6059
:100A38005A609A60DA601A615A619A613D4B3E4A7F
:100A48001A603C4B00225A603A4B00229A60394B9C
:100A58004FF6FF72DA60374B00221A61354B0022DD
:100A68009A61344805F066FD0346002B01D000F07A
:100A780017FA4FF48053BB6207F1280319462D4833
:100A880006F05EF80346002B01D000F009FA294869
:100A980005F09FFD0346002B01D000F001FA00236A
:100AA8003B6200237B6207F120031946214805F0C9
:100AB800C5FC0346002B01D000F0F2F960237B60EF
:100AC8000023BB600023FB6000237B613B1D0022E9
:100AD8001946184805F072FF0346002B01D000F0B4
:100AE800DFF93B1D04221946124805F067FF03464B
:100AF800002B01D000F0D4F93B1D082219460D48FF
:100B080005F05CFF0346002B01D000F0C9F93B1D3E
:100B18000C221946074805F051FF0346002B01D067
:100B280000F0BEF9034800F04FFC00BF3837BD465F
:100B380080BD00BF1C0300200004004080B590B0B9
:100B480000AF07F1300300221A605A609A60DA6039
:100B580007F11C0300221A605A609A60DA601A6171
:100B680007F10C0300221A605A609A60DA603B1D94
:100B780000221A605A603E4B3E4A1A603C4B0022E3
:100B88005A603B4B00229A60394B4FF6FF72DA608D
:100B9800374B00221A61364B00229A61344805F01F
:100BA800C9FC0346002B01D000F07AF94FF48053BA
:100BB8003B6307F1300319462D4805F0C1FF034692
:100BC800002B01D000F06CF9294805F05BFD0346C5
:100BD800002B01D000F064F90423FB6150233B6231
:100BE80000237B620023BB620023FB6207F11C0326
:100BF80019461F4806F06BF80346002B01D000F099
:100C08004FF90023FB6001233B6100237B61002334
:100C1800BB6107F10C0300221946154805F031FEA7
:100C28000346002B01D000F03BF90223FB600223AE
:100C38003B6107F10C03042219460D4805F021FE1B
:100C48000346002B01D000F02BF900237B60002322
:100C5800BB603B1D1946064805F0F0FB0346002B18
:100C680001D000F01DF900BF4037BD4680BD00BF70
:100C7800640300200008004080B500AF114B124A01
:100C88001A60104B4FF4E1325A600E4B00229A6002
:100C98000C4B0022DA600B4B00221A61094B0C2224
:100CA8005A61084B00229A61064B0022DA61054816
:100CB80006F0F6FC0346002B01D000F0F1F800BF67
:100CC80080BD00BFAC0300200050004080B500AFDD
:100CD800124B134A1A60114B4FF4E1325A600F4B12
:100CE80000229A600D4B0022DA600C4B00221A6138
:100CF8000A4B0C225A61094B00229A61074B0022C9
:100D0800DA61064B00221A62044806F08BFF03469C
:100D1800002B01D000F0C4F800BF80BDF003002014
:100D28000010014080B500AF114B124A1A60104BF9
:100D38004FF4E1325A600E4B00229A600C4B0022AD
:100D4800DA600B4B00221A61094B0C225A61084BDE
:100D580000229A61064B0022DA61054806F0A0FCE1
:100D68000346002B01D000F09BF800BF80BD00BFF8
:100D7800340400200044004080B58CB000AF07F177
:100D88001C0300221A605A609A60DA601A61002314
:100D9800BB61404B1B6B3F4A43F0800313633D4BE1
:100DA8001B6B03F08003BB61BB6900237B61394B7C
:100DB8001B6B384A43F004031363364B1B6B03F079
:100DC80004037B617B6900233B61324B1B6B314A17
:100DD80043F0010313632F4B1B6B03F001033B61CB
:100DE8003B690023FB602B4B1B6B2A4A43F0020331
:100DF8001363284B1B6B03F00203FB60FB680023A3
:100E0800BB60244B1B6B234A43F010031363214B35
:100E18001B6B03F01003BB60BB6800237B601D4B9A
:100E28001B6B1C4A43F0080313631A4B1B6B03F03C
:100E380008037B607B6800224FF4F061164803F0DA
:100E480001FA002242F20801144803F0FBF94FF4BA
:100E5800F063FB6101233B6200237B620023BB62DA
:100E680007F11C0319460C4803F050F842F2080336
:100E7800FB6101233B6200237B620023BB6207F115
:100E88001C031946054803F041F800BF3037BD463A
:100E980080BD00BF0038024000100240000C024034
:100EA80080B400AF72B600BFFEE7000080B483B024
:100EB80000AF00237B60104B5B6C0F4A43F4804308
:100EC80053640D4B5B6C03F480437B607B680023A9
:100ED8003B60094B1B6C084A43F080531364064B74
:100EE8001B6C03F080533B603B6800BF0C37BD466A
:100EF8005DF8047B704700BF0038024080B58CB0B5
:100F080000AF786007F11C0300221A605A609A60EB
:100F1800DA601A617B681B682E4A934228D1002345
:100F2800BB612D4B5B6C2C4A43F4807353642A4B92
:100F38005B6C03F48073BB61BB6900237B61264B48
:100F48001B6B254A43F001031363234B1B6B03F010
:100F580001037B617B690123FB6103233B6200235F
:100F68007B6207F11C0319461C4802F0CFFF2CE0F6
:100F78007B681B681A4A934227D100233B61164BB2
:100F88005B6C154A43F400735364134B5B6C03F4B6
:100F980000733B613B690023FB600F4B1B6B0E4AE0
:100FA80043F0010313630C4B1B6B03F00103FB605D
:100FB800FB680223FB6103233B6200237B6207F18A
:100FC8001C031946054802F0A1FF00BF3037BD4693
:100FD80080BD00BF002001400038024000000240F0
:100FE8000021014080B58AB000AF786007F1140392
:100FF80000221A605A609A60DA601A617B681B687E
:10100800194A93422BD100233B61184B1B6C174A9A
:1010180043F000731364154B1B6C03F000733B61C2
:101028003B690023FB60114B1B6B104A43F008031C
:1010380013630E4B1B6B03F00803FB60FB68032371
:101048007B610223BB610023FB6103233B6209230D
:101058007B6207F114031946054802F057FF00BFE9
:101068002837BD4680BD00BF0064004000380240FC
:10107800000C024080B58AB000AF786007F1140315
:1010880000221A605A609A60DA601A617B681B68ED
:10109800194A93422BD100233B61184B1B6B174A0B
:1010A80043F002031363154B1B6B03F002033B6110
:1010B8003B69C0237B611223BB610023FB610323CF
:1010C8003B6204237B6207F1140319460C4802F0C3
:1010D8001DFF0023FB60094B1B6C084A43F40013F7
:1010E8001364064B1B6C03F40013FB60FB6800BF22
:1010F8002837BD4680BD00BF00540040003802407C
:101108000004024080B58CB000AF786007F11C0382
:1011180000221A605A609A60DA601A617B681B685C
:10112800414A93422CD10023BB61404B5B6C3F4A40
:1011380043F4805353643D4B5B6C03F48053BB61B1
:10114800BB6900237B61394B1B6B384A43F00103B1
:101158001363364B1B6B03F001037B617B69F02340
:10116800FB6102233B6200237B620323BB620523EE
:10117800FB6207F11C0319462D4802F0C7FE4FE039
:101188007B681B682B4A93424AD100233B61274B5B
:101198001B6C264A43F480431364244B1B6C03F4F2
:1011A80080433B613B690023FB60204B1B6B1F4A5C
:1011B80043F0040313631D4B1B6B03F00403FB6034
:1011C800FB680023BB60194B1B6B184A43F00203F2
:1011D8001363164B1B6B03F00203BB60BB680C2345
:1011E800FB6102233B6200237B620323BB6205236E
:1011F800FB6207F11C0319460F4802F087FE4FF403
:10120800A053FB6102233B6200237B620323BB6282
:101218000523FB6207F11C031946084802F076FE15
:1012280000BF3037BD4680BD003001400038024065
:10123800000002400038004000080240000402405C
:1012480080B58AB000AF786007F1140300221A60F5
:101258005A609A60DA601A617B681B68B3F1804F44
:101268004AD100233B61264B1B6C254A43F00103FE
:101278001364234B1B6C03F001033B613B690023A0
:10128800FB601F4B1B6B1E4A43F0010313631C4B8F
:101298001B6B03F00103FB60FB680023BB60184B6A
:1012A8001B6B174A43F002031363154B1B6B03F0C8
:1012B8000203BB60BB684FF400437B610223BB6140
:1012C8000023FB6100233B6201237B6207F11403C7
:1012D80019460C4802F01AFE08237B610223BB6101
:1012E8000023FB6100233B6201237B6207F11403A7
:1012F8001946054802F00AFE00BF2837BD4680BDE2
:1013080000380240000002400004024080B58AB064
:1013180000AF786007F1140300221A605A609A60DF
:10132800DA601A617B681B68234A93420ED1002356
:101338003B61224B1B6C214A43F0020313641F4B91
:101348001B6C03F002033B613B6931E07B681B685F
:101358001B4A93422CD10023FB60184B1B6C174A85
:1013680043F004031364154B1B6C03F00403FB6088
:10137800FB680023BB60114B1B6B104A43F008034A
:1013880013630E4B1B6B03F00803BB60BB684FF481
:1013980080537B610223BB610023FB6100233B6216
:1013A80002237B6207F114031946064802F0AEFDDA
:1013B80000BF2837BD4680BD000400400038024009
:1013C80000080040000C024080B58AB000AF786089
:1013D80007F1140300221A605A609A60DA601A61F1
:1013E8007B681B68214A93423BD100233B61204B19
:1013F8001B6B1F4A43F0020313631D4B1B6B03F067
:1014080002033B613B690023FB60194B1B6B184AC5
:1014180043F004031363164B1B6B03F00403FB60D8
:10142800FB6803237B610223BB610023FB6100236C
:101438003B6202237B6207F1140319460D4802F050
:1014480065FDC0237B610223BB610023FB61002390
:101458003B6202237B6207F114031946064802F037
:1014680055FD00BF2837BD4680BD00BF00040040C1
:1014780000380240000402400008024080B58CB0E9
:1014880000AF786007F11C0300221A605A609A6066
:10149800DA601A617B681B68414A93424BD100238A
:1014A800BB61404B1B6C3F4A43F4801313643D4BB4
:1014B8001B6C03F48013BB61BB6900237B61394B50
:1014C8001B6B384A43F004031363364B1B6B03F062
:1014D80004037B617B6900233B61324B1B6B314A00
:1014E80043F0080313632F4B1B6B03F008033B61A6
:1014F8003B694FF48053FB6102233B6200237B620C
:101508000323BB620823FB6207F11C031946264824
:1015180002F0FCFC0423FB6102233B6200237B6294
:101528000323BB620823FB6207F11C0319461F480B
:1015380002F0ECFC30E07B681B681D4A93422BD11B
:101548000023FB60174B1B6C164A43F400331364EB
:10155800144B1B6C03F40033FB60FB680023BB6077
:10156800104B1B6B0F4A43F0010313630D4B1B6BAE
:1015780003F00103BB60BB680C23FB6102233B62E1
:1015880000237B620323BB620723FB6207F11C0372
:101598001946084802F0BAFC00BF3037BD4680BD86
:1015A800005000400038024000080240000C024091
:1015B800004400400000024080B58AB000AF786067
:1015C80007F1140300221A605A609A60DA601A61FF
:1015D8007B681B68194A93422CD100233B61184B46
:1015E8005B6C174A43F010035364154B5B6C03F0B4
:1015F80010033B613B690023FB60114B1B6B104AD6
:1016080043F0010313630E4B1B6B03F00103FB60F4
:10161800FB684FF4E0637B610223BB610023FB613D
:1016280003233B6207237B6207F11403194605482D
:1016380002F06CFC00BF2837BD4680BD0010014099
:10164800003802400000024080B400AFFEE780B4DA
:1016580000AFFEE780B400AFFEE780B400AFFEE75E
:1016680080B400AFFEE780B400AF00BFBD465DF8B0
:10167800047B704780B400AF00BFBD465DF8047BB3
:10168800704780B400AF00BFBD465DF8047B70476B
:1016980080B500AF06F0F2FD00BF80BD80B500AF99
:1016A800024803F0E1F800BF80BD00BF5C190020CC
:1016B80080B400AF064BD3F88830054A43F4700372
:1016C800C2F8883000BFBD465DF8047B704700BF94
:1016D80000ED00E0DFF834D00D480E490E4A002333
:1016E80002E0D458C4500433C4188C42F9D30B4ACE
:1016F8000B4C002301E013600432A242FBD3FFF736
:10170800D7FF08F041FFFEF7DDFE7047000002201A
:1017180000000020FC00002070A60008FC0000204B
:1017280088200020FEE7000080B584B000AF786014
:101738000B46FB704FF4077008F0E2FEF860FB6898
:10174800002B09D17B68D3F8D4227B68B032002102
:1017580043F822100223D4E04FF407720021F868FE
:1017680008F036FF7B68D3F8D4227B68B032F9687A
:1017780043F822107B68D3F8D4227B68B03253F840
:1017880022207B68C3F8BC227B681B7C002B38D1E5
:101798005E4B19784FF400730222786808F08DFDCB
:1017A8005A4B1B7803F00F02796813469B001344C9
:1017B8009B000B44243301221A80554B19784FF4AF
:1017C80000730222786808F078FD514B1B7803F00B
:1017D8000F02796813469B0013449B000B4403F5E2
:1017E800B27301221A804B4B1B7803F00F02796801
:1017F80013469B0013449B000B44263310221A8087
:1018080035E0424B197840230222786808F055FDEC
:101818003E4B1B7803F00F02796813469B00134474
:101828009B000B44243301221A80394B197840233A
:101838000222786808F041FD354B1B7803F00F024F
:10184800796813469B0013449B000B4403F5B2735D
:1018580001221A802F4B1B7803F00F027968134678
:101868009B0013449B000B44263310221A80294BFB
:10187800197808230322786808F01FFD254B1B7888
:1018880003F00F02796813469B0013449B000B4436
:10189800243301221A80FB680022C3F804227B68E3
:1018A800D3F8D4327A68B0339B0013445B681B6862
:1018B8009847FB680022C3F81422FB680022C3F88B
:1018C8001822FB68D3F80432002B01D1022318E058
:1018D8007B681B7C002B0AD10D4B1978FB68D3F869
:1018E80004224FF40073786808F0D6FD08E0084B2E
:1018F8001978FB68D3F804224023786808F0CCFDF7
:10190800002318461037BD4680BD00BF8B0000205D
:101918008C0000208D00002080B582B000AF786078
:101928000B46FB703A4B1B781946786808F0EBFCBD
:10193800374B1B7803F00F02796813469B0013445A
:101948009B000B44243300221A80324B1B78194623
:10195800786808F0D8FC2F4B1B7803F00F027968E1
:1019680013469B0013449B000B4403F5B2730022FB
:101978001A80294B1B781946786808F0C4FC264B56
:101988001B7803F00F02796813469B0013449B00F1
:101998000B44243300221A801F4B1B7803F00F02DC
:1019A800796813469B0013449B000B44263300229E
:1019B8001A807B68D3F8D4227B68B03253F822307F
:1019C800002B1FD07B68D3F8D4327A68B0339B00E1
:1019D80013445B685B6898477B68D3F8D4227B68BC
:1019E800B03253F82230184608F098FD7B68D3F8D7
:1019F800D4227B68B032002143F822107B68002291
:101A0800C3F8BC22002318460837BD4680BD00BF76
:101A18008B0000208C0000208D00002080B586B04F
:101A280000AF786039607B68D3F8D4227B68B03225
:101A380053F822303B6100237B7300237B81002312
:101A4800FB753B69002B01D10323BFE03B681B7882
:101A580003F06003002B50D0202B40F0AF803B6890
:101A6800DB88002B3AD03B681B785BB2002B1BDA73
:101A78007B68D3F8D4327A68B0339B0013445B6830
:101A88009B683A68507839693A68D28898473B68C1
:101A9800DB88072B28BF0723FB813B69FA89194696
:101AA800786801F043FD90E03B685A783B6983F819
:101AB80000223B68DB883F2B03D83B68DB88DAB21F
:101AC80000E040223B6983F8012239693B6993F8B9
:101AD80001321A46786801F055FD76E07B68D3F844
:101AE800D4327A68B0339B0013445B689B683A68C9
:101AF800507800223968984767E03B685B780B2B81
:101B080051D801A252F823F0411B0008BD1B000860
:101B1800AF1B0008AF1B0008AF1B0008AF1B000875
:101B2800AF1B0008AF1B0008AF1B0008AF1B000865
:101B38006B1B0008951B00087B6893F89C32DBB28E
:101B4800032B07D107F10A0302221946786801F02E
:101B5800EDFC32E03968786801F077FC0323FB7507
:101B68002BE07B6893F89C32DBB2032B07D107F19B
:101B78000D0301221946786801F0D8FC1DE0396888
:101B8800786801F062FC0323FB7516E07B6893F824
:101B98009C32DBB2032B0FD03968786801F055FC12
:101BA8000323FB7508E03968786801F04EFC0323CD
:101BB800FB7502E000BF08E000BF06E039687868FE
:101BC80001F043FC0323FB7500BFFB7D1846183763
:101BD800BD4680BD80B584B000AF78600B46FB7011
:101BE8007B68D3F8C832FB607B68D3F8D4227B6863
:101BF800B03253F82230002B01D1032365E07B6813
:101C0800D3F8D4227B68B03253F82230BB60FB781B
:101C180003F00F02796813469B0013449B000B44A2
:101C280018331B68002B2FD0FB7803F00F0279685C
:101C380013469B0013449B000B4418331A68FB7827
:101C480003F00F01F8680B46DB000B449B000344CC
:101C580048331B68B2FBF3F101FB03F3D31A002BE3
:101C680012D1FB7803F00F02796813469B001344E6
:101C78009B000B44183300221A60F97800230022D5
:101C8800786808F0E8FB1FE0BB680022C3F814225C
:101C98007B68D3F8D4327A68B0339B0013445B680E
:101CA8001B69002B10D07B68D3F8D4327A68B03324
:101CB8009B0013445B681B69BA68D2F80802BA68CB
:101CC80002F50471FA789847002318461037BD4684
:101CD80080BD80B584B000AF78600B46FB707B6830
:101CE800D3F8D4227B68B03253F82230FB607B688B
:101CF800D3F8D4227B68B03253F82230002B01D1BC
:101D080003231AE0FB781946786808F0E6FB0246D8
:101D1800FB68C3F80C227B68D3F8D4327A68B033F6
:101D28009B0013445B68DB68FA68D2F80402FA681F
:101D380002F5037211469847002318461037BD462E
:101D480080BD80B584B000AF78607B68D3F8D422BA
:101D58007B68B03253F82230FB60FB68002B01D15E
:101D6800032325E07B68D3F8D4327A68B0339B002C
:101D780013445B68002B1AD0FB6893F80032FF2BE2
:101D880015D07B68D3F8D4327A68B0339B001344FB
:101D98005B689B68FA6892F80002F968FA6892F83A
:101DA800012292B29847FB68FF2283F800220023A1
:101DB80018461037BD4680BD80B586B000AF786044
:101DC8008221184800F009FD78610121154800F0CA
:101DD80004FD38618121134800F0FFFCF8607B693D
:101DE800002B02D07B6910229A713B69002B06D028
:101DF8003B69002242F040021A7100225A71FB68C6
:101E0800002B06D0FB68002242F040021A71002223
:101E18005A717B6843221A80024B18461837BD4610
:101E280080BD00BF4800002080B586B000AF786054
:101E38008221184800F0D1FC78610121154800F092
:101E4800CCFC38618121134800F0C7FCF8607B693D
:101E5800002B02D07B6910229A713B69002B06D0B7
:101E68003B6900221A71002242F002025A71FB6893
:101E7800002B06D0FB6800221A71002242F00202F1
:101E88005A717B6843221A80024B18461837BD46A0
:101E980080BD00BF4800002080B586B000AF7860E4
:101EA8008221184800F099FC78610121154800F05A
:101EB80094FC38618121134800F08FFCF8607B693D
:101EC800002B02D07B6910229A713B69002B06D047
:101ED8003B69002242F040021A7100225A71FB68E5
:101EE800002B06D0FB68002242F040021A71002243
:101EF8005A717B6843221A80024B18461837BD4630
:101F080080BD00BF4800002080B483B000AF786077
:101F18007B680A221A80034B18460C37BD465DF8C9
:101F2800047B70470400002080B483B000AF786061
:101F380039603B68002B01D1032309E07B68D3F8A3
:101F4800D4327A68B0339B0013443A685A6000234D
:101F580018460C37BD465DF8047B704780B487B0DF
:101F680000AFF860B9607A60FB68D3F8D422FB68E8
:101F7800B03253F822307B617B69002B01D10323F7
:101F880008E07B69BA68C3F808227B697A68C3F8F5
:101F98001022002318461C37BD465DF8047B7047A5
:101FA80080B485B000AF786039607B68D3F8D422FC
:101FB8007B68B03253F82230FB60FB68002B01D1FC
:101FC800032304E0FB683A68C3F804220023184698
:101FD8001437BD465DF8047B7047000080B584B0B7
:101FE80000AF78607B68D3F8D4227B68B03253F8AE
:101FF8002230FB607B68D3F8D4227B68B03253F878
:102008002230002B01D1032318E07B681B7C002BB6
:102018000AD10C4B1978FB68D3F804224FF40073EB
:10202800786808F039FA08E0064B1978FB68D3F8A5
:1020380004224023786808F02FFA00231846103746
:10204800BD4680BD8C00002080B586B000AFF8602A
:10205800B9601346FB71FB68002B01D103231FE015
:10206800FB680022C3F8B822FB680022C3F8C42228
:10207800FB680022C3F8D022BB68002B03D0FB68A2
:10208800BA68C3F8B422FB68012283F89C22FB6873
:10209800FA791A70F86808F0A9F80346FB75FB7D11
:1020A80018461837BD4680BD80B584B000AF78604B
:1020B80039600023FB813B68002B01D1032325E015
:1020C8007B683A68C3F8B8227B68D3F8D4227B6867
:1020D800AE3253F82230DB6A002B0FD07B68D3F87E
:1020E800D4227B68AE3253F82230DB6A07F10E0245
:1020F8001046984702467B68C3F8D0227B68D3F81D
:10210800D8325A1C7B68C3F8D822002318461037E7
:10211800BD4680BD80B582B000AF7860786808F0B1
:10212800B1F8034618460837BD4680BD80B483B071
:1021380000AF7860002318460C37BD465DF8047B75
:10214800704780B584B000AF78600B46FB70002301
:10215800FB737B68D3F8B832002B09D07B68D3F8BF
:10216800B8321B68FA781146786898470346FB73BB
:10217800FB7B18461037BD4680BD80B584B000AFE4
:1021880078600B46FB700023FB737B68D3F8B8328A
:102198005B68FA781146786898470346002B01D0A7
:1021A8000323FB73FB7B18461037BD4680BD80B503
:1021B80084B000AF786039607B6803F2AA2339687D
:1021C800184601F008F97B680122C3F894227B685D
:1021D800B3F8B0321A467B68C3F898227B6893F844
:1021E800AA3203F01F03022B1AD0022B22D8002B8D
:1021F80002D0012B0AD01DE07B6803F2AA231946FE
:10220800786800F05FFB0346FB7320E07B6803F20D
:10221800AA231946786800F0C7FB0346FB7316E04B
:102228007B6803F2AA231946786800F029FC034664
:10223800FB730CE07B6893F8AA3223F07F03DBB2D0
:102248001946786808F07EF80346FB7300BFFB7BED
:1022580018461037BD4680BD80B586B000AFF8601F
:102268000B467A60FB720023FB75FB7A002B6ED15C
:10227800FB6803F5AA733B61FB68D3F89432032B20
:1022880040F098803B699A683B69DB689A4213D9A9
:102298003B699A683B69DB68D21A3B699A603B697B
:1022A800DA683B699B68934228BF13461A467968E7
:1022B800F86801F084F97DE0FB6893F8AA3203F02E
:1022C8001F03022B14D0022B1DD8002B02D0012B88
:1022D80003D018E00023BB7518E0FB68B3F8AE32F2
:1022E800DBB21946F86800F05EFA0346BB750DE0EC
:1022F800FB68B3F8AE32DBB21946F86800F060FA52
:102308000346BB7502E00023BB7500BFBB7D002BF5
:1023180019D1FB6893F89C32DBB2032B13D1BA7D39
:10232800FB68AE3253F822301B69002B0BD0BA7D04
:10233800FB68C3F8D422BA7DFB68AE3253F822306A
:102348001B69F8689847F86801F04AF932E0FB7AA7
:1023580003F07F03DBB21946F86800F031FA034650
:10236800BB75BB7DFF2B25D0BB7D002B22D1FB6825
:1023780093F89C32DBB2032B17D1BA7DFB68AE32DF
:1023880053F822309B69002B0FD0BA7DFB68C3F845
:10239800D422BA7DFB68AE3253F822309B69FA7AB0
:1023A8001146F86898470346FB75FB7D002B01D062
:1023B800FB7D00E0002318461837BD4680BD80B578
:1023C80086B000AFF8600B467A60FB72FB7A002B90
:1023D8006FD1FB6814333B61FB68D3F89432022B4E
:1023E8005AD13B699A683B69DB689A4214D93B69C0
:1023F8009A683B69DB68D21A3B699A603B699B68BB
:102408001A467968F86801F0ACF800230022002128
:10241800F86808F041F83FE03B69DA683B699B6877
:102428009A421CD13B695A683B69DB689A4216D3C9
:102438003B695A68FB68D3F898329A420FD2002257
:102448000021F86801F08DF8FB680022C3F8982293
:10245800002300220021F86808F01EF81CE0FB6841
:1024680093F89C32DBB2032B0FD1FB68D3F8B83258
:10247800DB68002B09D0FB680022C3F8D422FB6874
:10248800D3F8B832DB68F86898478021F86807F015
:1024980059FFF86801F0B7F8FB6893F8A032002BF1
:1024A8003AD0F868FFF742FEFB68002283F8A022C2
:1024B80032E0FB7A63F07F03DBB21946F86800F07C
:1024C8007FF90346FB75FB7DFF2B25D0FB7D002B99
:1024D80022D1FB6893F89C32DBB2032B1CD1FA7D26
:1024E800FB68AE3253F822305B69002B14D0FA7DBA
:1024F800FB68C3F8D422FA7DFB68AE3253F8223069
:102508005B69FA7A1146F86898470346BB75BB7D44
:10251800002B01D0BB7D00E0002318461837BD46CC
:1025280080BD80B584B000AF78600023FB737B6802
:10253800012283F89C227B680022C3F894227B68DE
:1025480000225A607B680022C3F8A4227B6800221C
:1025580083F8A0227B68D3F8B832002B14D07B68AC
:10256800D3F8B8325B68002B0ED07B68D3F8B8324A
:102578005B687A685268D2B2114678689847034611
:10258800002B01D00323FB7340230022002178682D
:1025980007F093FE7B680122A3F864217B68402240
:1025A800C3F86021402300228021786807F085FE67
:1025B8007B6801229A847B6840221A62FB7B18465A
:1025C8001037BD4680BD80B483B000AF78600B463D
:1025D800FB707B68FA781A74002318460C37BD46DE
:1025E8005DF8047B704780B483B000AF78607B6887
:1025F80093F89C32DAB27B6883F89D227B680422C8
:1026080083F89C22002318460C37BD465DF8047BEE
:10261800704780B483B000AF78607B6893F89C32D1
:10262800DBB2042B06D17B6893F89D32DAB27B6863
:1026380083F89C22002318460C37BD465DF8047BBE
:10264800704780B582B000AF78607B6893F89C32A1
:10265800DBB2032B10D17B68D3F8B832002B0BD038
:102668007B68D3F8B832DB69002B05D07B68D3F8D8
:10267800B832DB6978689847002318460837BD46A2
:1026880080BD80B582B000AF78600B46FB707B6878
:10269800D3F8D4227B68AE3253F82230002B01D114
:1026A80003231CE07B6893F89C32DBB2032B15D123
:1026B8007B68D3F8D4227B68AE3253F822301B6A89
:1026C800002B0BD07B68D3F8D4227B68AE3253F84A
:1026D80022301B6AFA781146786898470023184612
:1026E8000837BD4680BD80B582B000AF78600B4624
:1026F800FB707B68D3F8D4227B68AE3253F8223063
:10270800002B01D103231CE07B6893F89C32DBB2D9
:10271800032B15D17B68D3F8D4227B68AE3253F8EB
:1027280022305B6A002B0BD07B68D3F8D4227B68FD
:10273800AE3253F822305B6AFA78114678689847C7
:10274800002318460837BD4680BD80B483B000AF6B
:102758007860002318460C37BD465DF8047B704747
:1027680080B584B000AF78600023FB737B680122DA
:1027780083F89C227B68D3F8B832002B0ED07B6894
:10278800D3F8B8325B687A685268D2B21146786872
:1027980098470346002B01D00323FB73FB7B1846A5
:1027A8001037BD4680BD80B483B000AF78600B465B
:1027B800FB70002318460C37BD465DF8047B704754
:1027C80080B483B000AF78600B46FB7000231846D6
:1027D8000C37BD465DF8047B704780B586B000AF06
:1027E80078600B46FB707B687B617B68FB6000232D
:1027F8003B61FB685B889AB2FB681B789BB29A4284
:1028080020D9FB681B789BB27B8113E007F10A0390
:102818001946786900F01BF878617B695B78052BAD
:1028280008D17B693B613B699B78FA789A4208D06A
:1028380000233B61FB685B889AB27B899A42E5D8A2
:1028480000E000BF3B6918461837BD4680BD80B41C
:1028580085B000AF786039607B68FB603B681A8898
:10286800FB681B789BB213449AB23B681A80FB68DA
:102878001B781A467B681344FB60FB6818461437BC
:10288800BD465DF8047B704780B487B000AF7860C0
:102898007B687B617B691B787B827B6901337B6109
:1028A8007B691B783B823B8A1B021AB2B7F912304C
:1028B80013431BB2FB81FB8918461C37BD465DF8E4
:1028C800047B704780B584B000AF7860396000231E
:1028D800FB733B681B7803F06003402B05D0402B4B
:1028E80057D8002B0FD0202B53D17B68D3F8D42294
:1028F8007B68AE3253F822309B683968786898470D
:102908000346FB734AE03B685B78092B3BD801A27E
:1029180052F823F071290008852900088F2900083A
:102928007B2900088F2900084F290008452900083D
:102938008F2900086729000859290008396878682C
:1029480000F03CFA24E03968786800F0A1FB1FE049
:102958003968786800F0E0FB0346FB7318E03968D3
:10296800786800F083FC13E03968786800F0B4FCFC
:102978000EE03968786800F0E3FC09E039687868A7
:1029880000F007FD04E03968786800F05EFD00BFDC
:1029980004E03968786800F058FD00BFFB7B1846F2
:1029A8001037BD4680BD00BF80B584B000AF7860E9
:1029B80039600023FB733B681B7803F06003402BEE
:1029C80005D0402B52D8002B01D0202B4ED17B684C
:1029D80093F89C32DBB2013B022B40D83B689B88C2
:1029E800DBB2012B36D83B689B88DBB21946786886
:1029F800FFF7D9FE0346BB73BB7BFF2B1DD0BB7B08
:102A0800002B1AD1BA7B7B68AE3253F822309B6810
:102A1800002B0FD0BA7B7B68C3F8D422BA7B7B68C3
:102A2800AE3253F822309B68396878689847034675
:102A3800FB7304E00323FB7301E00323FB733B6890
:102A4800DB88002B10D1FB7B002B0DD1786800F0C0
:102A5800C7FD09E03968786800F0F7FC04E03968D8
:102A6800786800F0F2FC00E000BF04E0396878689C
:102A780000F0EBFC00BFFB7B18461037BD4680BD5D
:102A880080B584B000AF786039600023FB733B6881
:102A98009B88BB733B681B7803F06003402B07D00F
:102AA800402B00F27F81002B2AD0202B40F07A8126
:102AB800BB7B19467868FFF783FE03467B737B7BF5
:102AC800FF2B00F074817B7B002B40F070817A7BB8
:102AD8007B68C3F8D4227A7B7B68AE3253F8223005
:102AE8009B68002B00F063817A7B7B68AE3253F8D9
:102AF80022309B683968786898470346FB7356E12B
:102B08003B685B78032B08D0032B00F34581002B2F
:102B180000F09B80012B3CD03EE17B6893F89C320F
:102B2800DBB2022B02D0032B16D02CE0BB7B002B90
:102B38000DD0BB7B802B0AD0BB7B1946786807F089
:102B480001FC8021786807F0FDFB00BF20E03968B0
:102B5800786800F07AFC1BE03B685B88002B0ED19C
:102B6800BB7B002B0BD0BB7B802B08D03B68DB8862
:102B7800002B04D1BB7B1946786807F0E3FB786823
:102B880000F02EFD04E03968786800F05EFC00BFB4
:102B980007E17B6893F89C32DBB2022B02D0032B4F
:102BA80016D04BE0BB7B002B0DD0BB7B802B0AD013
:102BB800BB7B1946786807F0C5FB8021786807F069
:102BC800C1FB00BF40E03968786800F03EFC3BE09C
:102BD8003B685B88002B36D1BB7B03F07F03002B5F
:102BE80004D0BB7B1946786807F0CBFB786800F007
:102BF800F7FCBB7B19467868FFF7E2FD03467B7359
:102C08007B7BFF2B1FD07B7B002B1CD17A7B7B68C7
:102C1800C3F8D4227A7B7B68AE3253F822309B68A3
:102C2800002B10D07A7B7B68AE3253F822309B6839
:102C38003968786898470346FB7304E03968786810
:102C480000F003FC00E000BFABE07B6893F89C3227
:102C5800DBB2022B02D0032B32D097E0BB7B002BD8
:102C680007D0BB7B802B04D03968786800F0EDFB77
:102C780091E097F90E30002B0BDABB7B03F07F0253
:102C880013469B0013449B0010337A6813440433A3
:102C98000BE0BB7B03F07F0213469B0013449B00B1
:102CA80003F5A8737A6813440433BB60BB68002239
:102CB8001A60BB6802221946786800F037FC6AE09F
:102CC80097F90E30002B11DABB7B03F00F027968FD
:102CD80013469B0013449B000B4424331B88002B92
:102CE80017D13968786800F0B0FB54E0BB7B03F07B
:102CF8000F02796813469B0013449B000B4403F5AD
:102D0800B2731B88002B04D13968786800F09DFBEA
:102D180041E097F90E30002B0BDABB7B03F07F0202
:102D280013469B0013449B0010337A681344043302
:102D38000BE0BB7B03F07F0213469B0013449B0010
:102D480003F5A8737A6813440433BB60BB7B002B7C
:102D580002D0BB7B802B03D1BB6800221A600EE037
:102D6800BB7B1946786807F02BFB0346002B03D082
:102D7800BB6801221A6002E0BB6800221A60BB68C7
:102D880002221946786800F0D1FB04E039687868B7
:102D980000F05BFB00BF04E03968786800F055FB81
:102DA80000BF05E03968786800F04FFB00E000BF1D
:102DB800FB7B18461037BD4680BD000080B584B047
:102DC80000AF7860396000233B810023FB6000235B
:102DD800FB723B685B881B0A9BB2013B062B00F227
:102DE800288101A252F823F00D2E0008252E000894
:102DF800652E00083B3000083B300008DB2F000838
:102E0800073000087B68D3F8B4321B687A68127CF4
:102E180007F1080110469847F86012E17B681B7CAF
:102E2800002B0DD17B68D3F8B8329B6A07F10802F2
:102E380010469847F860FB68013302221A7000E1D7
:102E48007B68D3F8B832DB6A07F108021046984766
:102E5800F860FB68013302221A70F2E03B685B8875
:102E6800DBB2052B00F2AC8001A252F823F000BFC0
:102E7800912E0008C52E0008F92E00082D2F0008F5
:102E8800612F0008952F00087B68D3F8B4325B687F
:102E9800002B0BD07B68D3F8B4325B687A68127C5D
:102EA80007F1080110469847F86091E0396878689A
:102EB80000F0CBFAFB7A0133FB7289E07B68D3F828
:102EC800B4329B68002B0BD07B68D3F8B4329B6874
:102ED8007A68127C07F1080110469847F86077E095
:102EE8003968786800F0B1FAFB7A0133FB726FE059
:102EF8007B68D3F8B432DB68002B0BD07B68D3F83F
:102F0800B432DB687A68127C07F1080110469847EA
:102F1800F8605DE03968786800F097FAFB7A013369
:102F2800FB7255E07B68D3F8B4321B69002B0BD0D9
:102F38007B68D3F8B4321B697A68127C07F1080100
:102F480010469847F86043E03968786800F07DFAE1
:102F5800FB7A0133FB723BE07B68D3F8B4325B69E0
:102F6800002B0BD07B68D3F8B4325B697A68127C8B
:102F780007F1080110469847F86029E03968786831
:102F880000F063FAFB7A0133FB7221E07B68D3F827
:102F9800B4329B69002B0BD07B68D3F8B4329B69A1
:102FA8007A68127C07F1080110469847F8600FE02C
:102FB8003968786800F049FAFB7A0133FB7207E058
:102FC8003968786800F041FAFB7A0133FB7200BF78
:102FD80037E07B681B7C002B09D17B68D3F8B832BB
:102FE8005B6B07F1080210469847F86029E03968DA
:102FF800786800F02AFAFB7A0133FB7221E07B68DB
:103008001B7C002B0DD17B68D3F8B8321B6B07F102
:10301800080210469847F860FB68013307221A70C7
:103028000FE03968786800F010FAFB7A0133FB7218
:1030380007E03968786800F008FAFB7A0133FB7218
:1030480000BFFB7A002B1ED13B68DB88002B16D013
:103058003B89002B0ED03B68DA883B89934228BF16
:1030680013469BB23B813B891A46F968786800F0A1
:103078005DFA09E03968786800F0E7F904E07868F3
:1030880000F0AEFA00E000BF1037BD4680BD00BFBB
:1030980080B584B000AF786039603B689B88002BAE
:1030A80031D13B68DB88002B2DD13B685B887F2BB7
:1030B80029D83B685B88DBB203F07F03FB737B682E
:1030C80093F89C32DBB2032B04D13968786800F09E
:1030D800BCF91DE07B68FA7B83F89E22FB7B1946CE
:1030E800786807F099F9786800F07AFAFB7B002B8A
:1030F80004D07B68022283F89C2209E07B680122C5
:1031080083F89C2204E03968786800F09EF900BFD3
:1031180000BF1037BD4680BD80B584B000AF786071
:1031280039600023FB733B685B88DAB24E4B1A7038
:103138004D4B1B78012B05D93968786800F085F963
:1031480003238CE07B6893F89C32DBB2022B02D01D
:10315800032B29D075E0444B1B78002B20D0424B21
:103168001B781A467B685A603F4B1B78194678686B
:10317800FEF7E7FF0346FB73FB7B002B08D039689B
:10318800786800F062F97B68022283F89C2265E087
:10319800786800F025FA7B68032283F89C225DE0BA
:1031A800786800F01DFA59E02F4B1B78002B12D1DC
:1031B8007B68022283F89C222B4B1B781A467B687B
:1031C8005A60294B1B7819467868FEF7D6FF78684D
:1031D80000F006FA42E0244B1B781A467B685B68CD
:1031E8009A422AD07B685B68DBB219467868FEF79A
:1031F800C4FF1D4B1B781A467B685A601A4B1B7814
:1032080019467868FEF79DFF0346FB73FB7B002B8E
:103218000FD03968786800F018F97B685B68DBB212
:1032280019467868FEF7A9FF7B68022283F89C227A
:1032380014E0786800F0D4F910E0786800F0D0F96C
:103248000CE03968786800F000F9074B1B781946DC
:103258007868FEF792FF0323FB7300BFFB7B1846D9
:103268001037BD4680BD00BF7804002080B582B00D
:1032780000AF786039603B68DB88012B04D039687F
:10328800786800F0E2F823E07B6893F89C32DBB2C0
:10329800022B02DC002B03DC15E0032B0BD012E021
:1032A8007B6800229A607B68083301221946786897
:1032B80000F03CF90CE07B68043301221946786879
:1032C80000F034F904E03968786800F0BEF800BF0F
:1032D80000BF0837BD4680BD80B582B000AF7860BA
:1032E80039607B6893F89C32DBB2013B022B1ED815
:1032F8003B68DB88022B04D03968786800F0A5F8B1
:103308001AE07B680122DA607B68D3F8A432002BCC
:1033180005D07B68DB6843F002027B68DA607B6873
:103328000C3302221946786800F000F904E0396885
:10333800786800F08AF800BF00BF0837BD4680BD36
:1033480080B582B000AF786039603B685B88012B3C
:1033580007D17B680122C3F8A422786800F040F9FD
:1033680013E03B685B88022B0BD13B689B881B0AE8
:103378009BB2DAB27B6883F8A022786800F030F953
:1033880003E03968786800F060F800BF0837BD4688
:1033980080BD80B582B000AF786039607B6893F8F3
:1033A8009C32DBB2013B022B0BD83B685B88012BBC
:1033B8000CD17B680022C3F8A422786800F010F9C9
:1033C80004E03968786800F040F800E000BF00BF0A
:1033D8000837BD4680BD80B584B000AF78603960DD
:1033E8003B68FB60FB681A787B681A70FB680133DE
:1033F800FB60FB681A787B685A70FB680133FB60D6
:10340800F868FFF741FA03461A467B685A80FB685A
:103418000133FB60FB680133FB60F868FFF734FA9F
:1034280003461A467B689A80FB680133FB60FB6899
:103438000133FB60F868FFF727FA03461A467B68F2
:10344800DA8000BF1037BD4680BD80B582B000AFBE
:10345800786039608021786806F074FF0021786808
:1034680006F070FF00BF0837BD4680BD80B586B046
:1034780000AFF860B9607A600023FB75FB68002B29
:1034880036D0FB683B61386900F036F803460133F3
:103498009BB25B009AB27B681A80FB7DBA681344C2
:1034A8007A6812781A70FB7D0133FB75FB7DBA6868
:1034B800134403221A70FB7D0133FB7513E0FB7D77
:1034C800BA6813443A6912781A703B6901333B6150
:1034D800FB7D0133FB75FB7DBA68134400221A702B
:1034E800FB7D0133FB753B691B78002BE7D100E0BE
:1034F80000BF1837BD4680BD80B485B000AF786086
:103508000023FB737B68BB6005E0FB7B0133FB7327
:10351800BB680133BB60BB681B78002BF5D1FB7B14
:1035280018461437BD465DF8047B704780B584B0F3
:1035380000AFF860B9607A60FB680222C3F8942291
:10354800FB687A689A61FB687A68DA617B68BA68AE
:103558000021F86806F07FFF002318461037BD46A3
:1035680080BD80B584B000AFF860B9607A607B68D0
:10357800BA680021F86806F06EFF00231846103775
:10358800BD4680BD80B584B000AFF860B9607A6090
:10359800FB680322C3F89422FB687A68C3F85821B1
:1035A800FB687A68C3F85C217B68BA680021F86810
:1035B80006F072FF002318461037BD4680BD80B55F
:1035C80084B000AFF860B9607A607B68BA6800219F
:1035D800F86806F061FF002318461037BD4680BD25
:1035E80080B582B000AF78607B680422C3F894226B
:1035F800002300220021786806F02DFF00231846DA
:103608000837BD4680BD80B582B000AF78607B6862
:103618000522C3F89422002300220021786806F0CE
:103628003BFF002318460837BD4680BD80B584B0EF
:1036380000AF78600023FB737B68002B01D1012366
:1036480033E07B681B6C002B09D17868FDF756FCCA
:103658007B6800225A647B68002283F83C207B68E0
:103668001B6C03F01003002B18D17B681B6C23F430
:10367800885323F0020343F002027B681A647868D7
:1036880000F03AF97B6800225A647B681B6C23F0CF
:10369800030343F001027B681A6401E00123FB7312
:1036A8007B68002283F83C20FB7B18461037BD4618
:1036B80080BD000080B485B000AF78603960002319
:1036C800BB607B6893F83C30012B01D1022305E1F4
:1036D8007B68012283F83C203B681B68092B25D9AD
:1036E8007B681B68D9683B681B689BB21A461346FF
:1036F8005B0013441E3B072202FA03F3DA437B689C
:103708001B680A40DA607B681B68D9683B689A685E
:103718003B681B689BB2184603465B0003441E3B8C
:103728009A407B681B680A43DA6022E07B681B6862
:1037380019693B681B689BB21A4613465B00134421
:10374800072202FA03F3DA437B681B680A401A610E
:103758007B681B6819693B689A683B681B689BB261
:10376800184603465B0003449A407B681B680A437B
:103778001A613B685B68062B24D87B681B68596B09
:103788003B685A6813469B001344053B1F2202FA04
:1037980003F3DA437B681B680A405A637B681B683B
:1037A800596B3B681B689BB218463B685A681346BE
:1037B8009B001344053B00FA03F27B681B680A432D
:1037C8005A634CE03B685B680C2B24D87B681B6809
:1037D800196B3B685A6813469B001344233B1F220E
:1037E80002FA03F3DA437B681B680A401A637B68B2
:1037F8001B68196B3B681B689BB218463B685A6884
:1038080013469B001344233B00FA03F27B681B68B2
:103818000A431A6323E07B681B68D96A3B685A68C5
:1038280013469B001344413B1F2202FA03F3DA4379
:103838007B681B680A40DA627B681B68D96A3B6848
:103848001B689BB218463B685A6813469B00134492
:10385800413B00FA03F27B681B680A43DA62224B99
:10386800FB607B681B68214A934209D13B681B684F
:10387800122B05D1FB685B6843F48002FB685A6031
:103888007B681B68194A934223D13B681B68102B3D
:1038980003D03B681B68112B1BD1FB685B6843F4A2
:1038A8000002FB685A603B681B68102B11D1104B53
:1038B8001B68104AA2FB03239A0C13469B0013446F
:1038C8005B00BB6002E0BB68013BBB60BB68002BD0
:1038D800F9D17B68002283F83C200023184614376E
:1038E800BD465DF8047B704700230140002001407D
:1038F8000000002083DE1B4380B485B000AF7860F1
:10390800794BFB60FB685B6823F44032FB685A60C4
:10391800FB685A687B685B681A43FB685A607B6877
:103928001B685A687B681B6822F480725A607B683F
:103938001B6859687B681B691A027B681B680A4305
:103948005A607B681B685A687B681B6822F0407263
:103958005A607B681B6859687B689A687B681B6833
:103968000A435A607B681B689A687B681B6822F464
:1039780000629A607B681B6899687B68DA687B6874
:103988001B680A439A607B689B6A584A934222D014
:103998007B681B689A687B681B6822F070629A6073
:1039A8007B681B6899687B689A6A7B681B680A430E
:1039B8009A607B681B689A687B681B6822F0405293
:1039C8009A607B681B6899687B68DA6A7B681B6801
:1039D8000A439A600FE07B681B689A687B681B68DB
:1039E80022F070629A607B681B689A687B681B6823
:1039F80022F040529A607B681B689A687B681B6853
:103A080022F002029A607B681B6899687B681B7EBB
:103A18005A007B681B680A439A607B6893F82030D9
:103A2800002B1BD07B681B685A687B681B6842F4B4
:103A380000625A607B681B685A687B681B6822F4BE
:103A480060425A607B681B6859687B685B6A013B07
:103A58005A037B681B680A435A6007E07B681B6847
:103A68005A687B681B6822F400625A607B681B688E
:103A7800DA6A7B681B6822F47002DA627B681B686A
:103A8800D96A7B68DB69013B1A057B681B680A43B6
:103A9800DA627B681B689A687B681B6822F400728C
:103AA8009A607B681B6899687B6893F830305A0283
:103AB8007B681B680A439A607B681B689A687B6806
:103AC8001B6822F480629A607B681B6899687B682F
:103AD8005B699A027B681B680A439A6000BF1437C7
:103AE800BD465DF8047B7047002301400100000FCC
:103AF80080B584B000AF78607B68002B01D10123CA
:103B0800EDE07B6893F82030DBB2002B02D17868B7
:103B1800FDF768FA7B681B681A687B681B6842F0C7
:103B280001021A6004F0BEFBF86012E004F0BAFB70
:103B38000246FB68D31A0A2B0BD97B685B6A43F4ED
:103B480000327B685A627B68052283F820200123B3
:103B5800C5E07B681B685B6803F00103002BE5D0B8
:103B68007B681B681A687B681B6822F002021A606F
:103B780004F098FBF86012E004F094FB0246FB683E
:103B8800D31A0A2B0BD97B685B6A43F400327B6833
:103B98005A627B68052283F8202001239FE07B6816
:103BA8001B685B6803F00203002BE5D17B681B7E72
:103BB800012B08D17B681B681A687B681B6842F078
:103BC80080021A6007E07B681B681A687B681B68BC
:103BD80022F080021A607B685B7E012B08D17B682B
:103BE8001B681A687B681B6842F040021A6007E08D
:103BF8007B681B681A687B681B6822F040021A60A1
:103C08007B689B7E012B08D17B681B681A687B68E0
:103C18001B6842F020021A6007E07B681B681A687C
:103C28007B681B6822F020021A607B68DB7E012B10
:103C380008D17B681B681A687B681B6822F0100231
:103C48001A6007E07B681B681A687B681B6842F08B
:103C580010021A607B681B7F012B08D17B681B68E8
:103C68001A687B681B6842F008021A6007E07B68E4
:103C78001B681A687B681B6822F008021A607B6858
:103C88005B7F012B08D17B681B681A687B681B68FF
:103C980042F004021A6007E07B681B681A687B68B8
:103CA8001B6822F004021A607B689A687B68DB68EC
:103CB8001A437B681B691A437B685B6942EA030104
:103CC8007B685B685A1E7B681B680A43DA617B68FD
:103CD80000225A627B68012283F8202000231846BC
:103CE8001037BD4680BD000080B485B000AF786055
:103CF8007B6803F00703FB600C4BDB68BB60BA68AA
:103D08004FF6FF031340BB60FB681A02BB681343FE
:103D180043F0BF6343F40033BB60044ABB68D3601D
:103D280000BF1437BD465DF8047B704700ED00E026
:103D380080B400AF044BDB681B0A03F00703184686
:103D4800BD465DF8047B704700ED00E080B483B0A9
:103D580000AF0346FB7197F90730002B0BDBFB79AB
:103D680003F01F02074997F907305B09012000FAA1
:103D780002F241F8232000BF0C37BD465DF8047BF2
:103D8800704700BF00E100E080B483B000AF034695
:103D98003960FB7197F90730002B0ADB3B68DAB210
:103DA8000C4997F907301201D2B20B4483F800236B
:103DB8000AE03B68DAB20849FB7903F00F03043BD9
:103DC8001201D2B20B441A7600BF0C37BD465DF81B
:103DD800047B704700E100E000ED00E080B489B0AA
:103DE80000AFF860B9607A60FB6803F00703FB6115
:103DF800FB69C3F10703042B28BF0423BB61FB69DC
:103E08000433062B02D9FB69033B00E000237B61E6
:103E18004FF0FF32BB6902FA03F3DA43BB681A407A
:103E28007B699A404FF0FF317B6901FA03F3D9436C
:103E38007B680B40134318462437BD465DF8047B66
:103E48007047000080B582B000AF78607B68013BA6
:103E5800B3F1807F01D301230FE00A4A7B68013B5D
:103E680053600F214FF0FF30FFF78EFF054B002204
:103E78009A60044B07221A60002318460837BD468B
:103E880080BD00BF10E000E080B582B000AF786070
:103E98007868FFF729FF00BF0837BD4680BD80B5A9
:103EA80086B000AF0346B9607A60FB7300237B617C
:103EB800FFF73EFF78617A68B9687869FFF78EFF87
:103EC800024697F90F3011461846FFF75DFF00BF0D
:103ED8001837BD4680BD80B582B000AF0346FB7180
:103EE80097F907301846FFF731FF00BF0837BD467E
:103EF80080BD80B582B000AF78607868FFF7A2FF18
:103F0800034618460837BD4680BD000080B489B016
:103F180000AF7860396000237B6100233B61002398
:103F2800BB610023FB616BE10122FB6902FA03F329
:103F38007B613B681B687A6913403B613A697B691E
:103F48009A4240F05A813B685B6803F00303012BF7
:103F580005D03B685B6803F00303022B30D17B6814
:103F68009B68BB61FB695B00032202FA03F3DB4336
:103F7800BA691340BB613B68DA68FB695B0002FA07
:103F880003F3BA691343BB617B68BA699A607B68BB
:103F98005B68BB610122FB6902FA03F3DB43BA6980
:103FA8001340BB613B685B681B0903F00102FB69B6
:103FB80002FA03F3BA691343BB617B68BA695A60B2
:103FC8003B685B6803F00303032B17D07B68DB684F
:103FD800BB61FB695B00032202FA03F3DB43BA69A6
:103FE8001340BB613B689A68FB695B0002FA03F304
:103FF800BA691343BB617B68BA69DA603B685B687E
:1040080003F00303022B23D1FB69DA087B6808322B
:1040180053F82230BB61FB6903F007039B000F22B2
:1040280002FA03F3DB43BA691340BB613B681A69C0
:10403800FB6903F007039B0002FA03F3BA69134311
:10404800BB61FB69DA087B680832B96943F822105A
:104058007B681B68BB61FB695B00032202FA03F300
:10406800DB43BA691340BB613B685B6803F003023A
:10407800FB695B0002FA03F3BA691343BB617B680F
:10408800BA691A603B685B6803F44033002B00F0A0
:10409800B4800023FB60604B5B6C5F4A43F4804351
:1040A80053645D4B5B6C03F48043FB60FB685B4AC5
:1040B800FB699B08023352F82330BB61FB6903F0AC
:1040C80003039B000F2202FA03F3DB43BA69134090
:1040D800BB617B68524A93422BD07B68514A93421A
:1040E80025D07B68504A93421FD07B684F4A934241
:1040F80019D07B684E4A934213D07B684D4A93424D
:104108000DD07B684C4A934207D07B684B4A934258
:1041180001D107230EE008230CE006230AE005235B
:1041280008E0042306E0032304E0022302E001235D
:1041380000E00023FA6902F0030292009340BA6992
:104148001343BB613549FB699B080233BA6941F8DF
:1041580023203B4B9B68BB613B69DB43BA69134037
:10416800BB613B685B6803F48013002B03D0BA691A
:104178003B691343BB61324ABB699360304BDB68D0
:10418800BB613B69DB43BA691340BB613B685B6851
:1041980003F40013002B03D0BA693B691343BB61D6
:1041A800274ABB69D360264B5B68BB613B69DB432D
:1041B800BA691340BB613B685B6803F40033002BAA
:1041C80003D0BA693B691343BB611D4ABB6953609D
:1041D8001B4B1B68BB613B69DB43BA691340BB617E
:1041E8003B685B6803F48033002B03D0BA693B69F2
:1041F8001343BB61124ABB691360FB690133FB615E
:10420800FB690F2B7FF690AE00BF00BF2437BD4679
:104218005DF8047B704700BF003802400038014059
:10422800000002400004024000080240000C024066
:10423800001002400014024000180240001C024016
:10424800003C014080B483B000AF78600B467B80AF
:1042580013467B707B78002B03D07A887B689A6141
:1042680003E07B881A047B689A6100BF0C37BD465F
:104278005DF8047B7047000080B584B000AF7860BB
:104288007B68002B01D101232BE17B6893F83D303B
:10429800DBB2002B06D17B68002283F83C207868CB
:1042A800FCF7E8FE7B68242283F83D207B681B68C6
:1042B8001A687B681B6822F001021A607B681B6819
:1042C8001A687B681B6842F400421A607B681B68A6
:1042D8001A687B681B6822F400421A6001F0FCFF30
:1042E800F8607B685B68814A934207D8FB68804A1C
:1042F800934294BF01230023DBB206E0FB687D4AAA
:10430800934294BF01230023DBB2002B01D0012389
:10431800E7E0FB68784AA2FB03239B0CBB607B6841
:104328001B685B6823F03F017B681B68BA680A4317
:104338005A607B681B681B6A23F03F017B685B68D7
:104348006A4A934202D8BB68013309E0BB684FF45C
:10435800967202FB03F3694AA2FB03239B0901330C
:104368007A6812680B4313627B681B68DB6923F465
:104378004F4222F0FF027B685B685C498B4219D888
:10438800FB68591E7B685B685B00B1FBF3F3591C43
:1043980040F6FC730B40002B0AD0FB68591E7B6863
:1043A8005B685B00B1FBF3F30133C3F30B0351E02C
:1043B80004234FE07B689B68002B11D1FB68581ED3
:1043C8007B6859680B465B000B44B0FBF3F3013381
:1043D800C3F30B03002B0CBF01230023DBB212E055
:1043E800FB68581E7B6859680B469B000B44990074
:1043F8000B44B0FBF3F30133C3F30B03002B0CBFE7
:1044080001230023DBB2002B01D0012322E07B68CB
:104418009B68002B0ED1FB68581E7B6859680B46B9
:104428005B000B44B0FBF3F30133C3F30B0343F41A
:1044380000430FE0FB68581E7B6859680B469B00D9
:104448000B4499000B44B0FBF3F30133C3F30B03A4
:1044580043F44043796809681343CB617B681B6860
:104468001B6823F0C0017B68DA697B681B6A1A4302
:104478007B681B680A431A607B681B689B6823F487
:10448800034323F0FF037A6811697A68D2681143FD
:104498007A6812680B4393607B681B68DB6823F0BB
:1044A800FF017B685A697B689B691A437B681B68B4
:1044B8000A43DA607B681B681A687B681B6842F0ED
:1044C80001021A607B6800221A647B68202283F844
:1044D8003D207B6800221A637B68002283F83E2017
:1044E800002318461037BD4680BD00BFA0860100D6
:1044F8007F841E00FF083D0083DE1B43D34D6210FE
:1045080080B485B000AF78600B46FB7013463B80E3
:104518007B681B685B6ABB60FB78002B07D13B8814
:1045280019047B681B68BA680A439A6228E07B68AA
:104538001B689B6A1B0CBA681344BB600023FB739F
:104548000DE07B681A68FB7B40339B0013445B6873
:104558001B0CBA681344BB60FB7B0133FB73FA7B0B
:10456800FB78013B9A42ECD33B8818047B681968B6
:10457800FB78013BBA68024340339B000B445A6006
:10458800002318461437BD465DF8047B704780B495
:1045980083B000AF78600B467B807B681B687A88A5
:1045A8005A62002318460C37BD465DF8047B7047F5
:1045B80080B483B000AF78600B46FB7000BF0C3747
:1045C800BD465DF8047B7047F0B58FB00AAF7860E0
:1045D8007B68002B01D101230FE17B681B68BB605E
:1045E8007B6893F8BD34DBB2002B06D17B680022D0
:1045F80083F8BC24786805F0B3FC7B68032283F851
:10460800BD24BB68DB6B03F48073002B02D17B688D
:1046180000221A617B681B68184603F088FF7B68D4
:104628001B683B607E686D4606F110040FCC0FC511
:104638000FCC0FC594E8030085E80300331D0ECBAB
:10464800386803F05FFE0346002B05D07B68022222
:1046580083F8BD240123D0E07B681B68002118463D
:1046680003F076FF0023FB734AE0FA7B7968134670
:10467800DB0013449B000B443D3301221A70FA7B84
:1046880079681346DB0013449B000B443C33FA7BE8
:104698001A70FA7BFB7B98B279681346DB001344E7
:1046A8009B000B44443302461A80FA7B7968134610
:1046B800DB0013449B000B44403300221A70FA7B42
:1046C80079681346DB0013449B000B4448330022EF
:1046D8001A60FA7B79681346DB0013449B000B448D
:1046E8004C3300221A60FA7B79681346DB001344C6
:1046F8009B000B44543300221A60FB7B0133FB738D
:10470800FA7B7B685B689A42AFD30023FB7344E073
:10471800FA7B79681346DB0013449B000B4403F2D1
:104728007D2300221A70FA7B79681346DB00134454
:104738009B000B4403F51F73FA7B1A70FA7B7968A8
:104748001346DB0013449B000B4403F5207300223F
:104758001A70FA7B79681346DB0013449B000B44FC
:1047680003F5227300221A60FA7B79681346DB008E
:1047780013449B000B4403F5237300221A60FA7B51
:1047880079681346DB0013449B000B4403F525733B
:1047980000221A60FB7B0133FB73FA7B7B685B6842
:1047A8009A42B5D37B681B683B607E686D4606F10C
:1047B80010040FCC0FC50FCC0FC594E8030085E893
:1047C8000300331D0ECB386803F00EFF0346002BA1
:1047D80005D07B68022283F8BD2401230DE07B68A5
:1047E800002283F838207B68012283F8BD247B6887
:1047F8001B68184605F05DF8002318461437BD46B7
:10480800F0BD80B584B000AF78607B681B68FB6042
:104818007B6893F8BC34012B01D1022320E07B682C
:10482800012283F8BC247B689B6A012B09D17B6831
:104838009B69012B05D0FB689B6B43F48032FB68B6
:104848009A637B681B68184603F060FE7B681B68E8
:10485800184605F00DF87B68002283F8BC24002375
:1048680018461037BD4680BD90B58DB000AF786052
:104878007B681B683B623B6AFB617B681B68184668
:1048880005F0CBF80346002B40F08A847B681B6850
:10489800184605F02FF80346002B00F08084FB69CA
:1048A80003F500639B681B0AC3F30D027B68C3F81A
:1048B800FC247B681B68184605F01CF8034603F0C7
:1048C8000203022B07D17B681B685A697B681B6847
:1048D80002F002025A617B681B68184605F00AF864
:1048E800034603F01003102B61D17B681B689A699B
:1048F8007B681B6822F010029A613B6A1B6ABB61E5
:10490800BB6903F00F021346DB0013449B0003F559
:104918001E737A68134404337B61BB695B0C03F034
:104928000F03022B24D1BA6947F6F0731340002B0A
:1049380035D07B691969BB691B099BB2C3F30A03AC
:104948009BB21A46386A04F041FE7B691A69BB6952
:104958001B09C3F30A031A447B691A617B691A6A43
:10496800BB691B09C3F30A031A447B691A6216E080
:10497800BB695B0C03F00F03062B10D17B6803F2B5
:10498800C44308221946386A04F020FE7B691A6A73
:10499800BB691B09C3F30A031A447B691A627B6863
:1049A8001B689A697B681B6842F010029A617B68F1
:1049B8001B68184604F09EFF034603F40023B3F572
:1049C800002F40F0A78000237B627B681B68184695
:1049D80004F0A3FFB86299E0BB6A03F00103002B5F
:1049E80000F08E807B681B687A6AD2B2114618463E
:1049F80004F0C7FF38613B6903F00103002B0CD0BA
:104A08007B6A5A01FB69134403F530631A46012394
:104A18009360796A786800F0C3FE3B6903F0080385
:104A2800002B0CD07B6A5A01FB69134403F53063F1
:104A38001A4608239360796A786800F099FF3B6901
:104A480003F01003002B08D07B6A5A01FB6913445A
:104A580003F530631A46102393603B6903F00203A1
:104A6800002B30D03B6A5B6903F08003802B09D1AF
:104A7800FB6903F500635B68FA6902F5006243F4B9
:104A8800806353607A6A1346DB0013449B0003F586
:104A98001E737A68134404337B617B69DB78012BCE
:104AA80008D17B690022DA707B6ADBB21946786824
:104AB80005F05CFB7B6A5A01FB69134403F530631C
:104AC8001A46022393603B6903F02003002B08D0A9
:104AD8007B6A5A01FB69134403F530631A462023A5
:104AE80093603B6903F40053002B09D07B6A5A0199
:104AF800FB69134403F530631A464FF4005393607F
:104B08007B6A01337B62BB6A5B08BB62BB6A002BB2
:104B18007FF462AF7B681B68184604F0EBFE03461F
:104B280003F48023B3F5802F40F0DB807B681B689B
:104B3800184604F00CFFB86200237B62CDE0BB6A24
:104B480003F00103002B00F0C2807B681B687A6ABF
:104B5800D2B21146184604F032FF38613B6903F0BF
:104B68000103002B57D07B6A03F00F03012202FADE
:104B780003F3FB60FB6903F500635A6BFB68DB43D7
:104B8800F96901F5006113404B637B6A5A01FB69BF
:104B9800134403F510631A46012393607B681B696D
:104BA800012B32D179687A6A1346DB0013449B00E3
:104BB8000B444C33196878687A6A1346DB0013444F
:104BC8009B00034448331B68194478687A6A134683
:104BD800DB0013449B0003444C3319607B6A002BB1
:104BE80013D179687A6A1346DB0013449B000B449F
:104BF80054331B68002B08D17B6818687B6803F264
:104C0800C4431A46012104F039FF7B6ADBB2194616
:104C1800786805F026FA3B6903F00803002B08D0F2
:104C28007B6A5A01FB69134403F510631A4608238B
:104C380093603B6903F01003002B08D07B6A5A018C
:104C4800FB69134403F510631A46102393603B690C
:104C580003F04003002B08D07B6A5A01FB69134418
:104C680003F510631A46402393603B6903F002037F
:104C7800002B23D0796A386A03F01AFE7A6A134641
:104C8800DB0013449B0038337A68134404337B6198
:104C98007B69DB78012B08D17B690022DA707B6A9B
:104CA800DBB21946786805F073FA7B6A5A01FB692A
:104CB800134403F510631A46022393603B6903F01B
:104CC8008003002B03D0796A786800F0DBFC7B6AEC
:104CD80001337B62BB6A5B08BB62BB6A002B7FF453
:104CE8002EAF7B681B68184604F004FE034603F0E9
:104CF8000043B3F1004F22D1FB6903F500635B6801
:104D0800FA6902F5006223F0010353607B6893F8A7
:104D1800F434012B08D17B68002283F8F4240021A5
:104D28007868FFF745FC02E0786805F011FA7B68BF
:104D38001B685A697B681B6802F000425A617B68ED
:104D48001B68184604F0D6FD034603F40063B3F568
:104D5800006F12D1FB6903F500639B6803F0010340
:104D6800012B02D1786805F0CDF97B681B685A6978
:104D78007B681B6802F400625A617B681B681846EE
:104D880004F0B8FD034603F48053B3F5805F40F0A8
:104D9800B780FB6903F500635B68FA6902F5006296
:104DA80023F0010353607B681B681021184603F049
:104DB8007FFD0023FB6246E0FB6A5A01FB6913444E
:104DC80003F510631A464FF67F339360FB6A5A0166
:104DD800FB69134403F510631B68FA6A5101FA6909
:104DE8000A4402F5106223F400131360FB6A5A01A7
:104DF800FB69134403F530631A464FF67F3393601B
:104E0800FB6A5A01FB69134403F530631B68FA6AAD
:104E18005101FA690A4402F5306223F40013136061
:104E2800FB6A5A01FB69134403F530631B68FA6A8D
:104E38005101FA690A4402F5306243F000631360D5
:104E4800FB6A0133FB627B685B68FA6A9A42B3D3F8
:104E5800FB6903F50063DB69FA6902F5006243F058
:104E68000113D3617B681B6B002B16D0FB6903F51C
:104E78000063D3F88430FA6902F5006243F00B034B
:104E8800C2F88430FB6903F500635B6CFA6902F5CC
:104E9800006243F00B03536415E0FB6903F50063FC
:104EA8005B69FA6902F5006243F4005343F02B038F
:104EB8005361FB6903F500631B69FA6902F5006237
:104EC80043F00B031361FB6903F500631B68FA6980
:104ED80002F5006223F4FE6313607B6818687B6840
:104EE8001B69D9B27B6803F2C4431A4604F0C6FDB5
:104EF8007B681B685A697B681B6802F480525A6198
:104F08007B681B68184604F0F5FC034603F400535D
:104F1800B3F5005F24D17B681B68184604F08BFD4D
:104F28007B681B68184603F040FD03461A467B68F9
:104F3800DA607B681C6801F0C3F901467B68DB68AE
:104F4800DBB21A46204603F03FFA786805F0B1F85C
:104F58007B681B685A697B681B6802F400525A61B7
:104F68007B681B68184604F0C5FC034603F0080379
:104F7800082B0AD1786805F08EF87B681B685A6997
:104F88007B681B6802F008025A617B681B68184638
:104F980004F0B0FC034603F08003802B22D13B6A67
:104FA8009B6923F080023B6A9A6101237B6214E0CB
:104FB80079687A6A1346DB0013449B000B4403F2BA
:104FC8007F231B78012B05D17B6ADBB219467868F1
:104FD80000F027FB7B6A01337B627B685B687A6A37
:104FE8009A42E5D37B681B68184604F083FC0346A5
:104FF80003F48013B3F5801F3BD101237B622BE0C0
:105008007B6A5A01FB69134403F510631B68BB6193
:1050180079687A6A1346DB0013449B000B444033DB
:105028001B78012B15D1BB69002B12DA79687A6AD3
:105038001346DB0013449B000B443F3301221A70D4
:105048007B6ADBB263F07F03DBB21946786800F055
:10505800E8FA7B6A01337B627B685B687A6A9A420A
:10506800CED37B681B685A697B681B6802F4801280
:105078005A617B681B68184604F03CFC034603F43D
:105088000013B3F5001F55D101237B6245E07B6A0D
:105098005A01FB69134403F530631B68BB617968E7
:1050A8007A6A1346DB0013449B000B4403F5207314
:1050B8001B78012B2ED1BB69002B2BDABB6903F4BB
:1050C80080327B68D3F8FC3403F001039A4221D183
:1050D80079687A6A1346DB0013449B000B4403F299
:1050E8007F2301221A703B6A9B6943F080023B6A66
:1050F8009A613B6A5B6903F08003002B0AD1FB6964
:1051080003F500635B68FA6902F5006243F4007313
:10511800536007E07B6A01337B627B685B687A6A6D
:105128009A42B4D37B681B685A697B681B6802F48F
:1051380000125A617B681B68184604F0DBFB0346C3
:1051480003F08043B3F1804F0AD1786805F032F854
:105158007B681B685A697B681B6802F080425A6149
:105168007B681B68184604F0C5FB034603F004037C
:10517800042B15D17B681B685B68BB61BB6903F0B6
:105188000403002B02D0786805F022F87B681B68BE
:1051980059687B681B68BA690A435A6000E000BF17
:1051A8003437BD4690BD80B582B000AF78600B46FD
:1051B800FB707B6893F8BC34012B01D1022313E008
:1051C8007B68012283F8BC247B68FA7883F838204E
:1051D8007B681B68FA781146184604F023FB7B6845
:1051E800002283F8BC24002318460837BD4680BD3A
:1051F80080B584B000AF7860084611461A46034669
:10520800FB700B463B801346BB700023FB7297F97B
:105218000330002B0FDAFB7803F00F021346DB0094
:1052280013449B0038337A6813440433FB60FB68EB
:1052380001225A700FE0FB7803F00F021346DB00DF
:1052480013449B0003F51E737A6813440433FB6010
:10525800FB6800225A70FB7803F00F03DAB2FB6890
:105268001A703A88FB68DA60FB68BA781A71FB68CA
:105278005B78002B04D0FB681B789AB2FB681A8114
:10528800BB78022B02D1FB6800225A717B6893F825
:10529800BC34012B01D102230EE07B68012283F884
:1052A800BC247B681B68F968184603F0A3FB7B687D
:1052B800002283F8BC24FB7A18461037BD4680BD0F
:1052C80080B584B000AF78600B46FB7097F9033067
:1052D800002B0FDAFB7803F00F021346DB001344B0
:1052E8009B0038337A6813440433FB60FB6801225F
:1052F8005A700FE0FB7803F00F021346DB001344EB
:105308009B0003F51E737A6813440433FB60FB6843
:1053180000225A70FB7803F00F03DAB2FB681A70A8
:105328007B6893F8BC34012B01D102230EE07B6823
:10533800012283F8BC247B681B68F968184603F0CF
:10534800E1FB7B68002283F8BC2400231846103751
:10535800BD4680BD80B586B000AFF8607A603B601E
:105368000B46FB72FB7A03F00F021346DB00134473
:105378009B0003F51E73FA68134404337B617B6951
:105388007A681A617B693A689A617B6900221A62B5
:105398007B6900225A70FB7A03F00F03DAB27B694B
:1053A8001A70FB681B69012B02D17A687B695A6104
:1053B800FB7A03F00F03002B09D1FB681868FB6820
:1053C8001B69DBB21A46796903F0C0FE08E0FB6886
:1053D8001868FB681B69DBB21A46796903F06EFC32
:1053E800002318461837BD4680BD80B483B000AF8F
:1053F80078600B46FB70FB7803F00F027968134660
:10540800DB0013449B000B4403F527731B68184605
:105418000C37BD465DF8047B704780B586B000AF99
:10542800F8607A603B600B46FB72FB7A03F00F0270
:105438001346DB0013449B003833FA6813440433E3
:105448007B617B697A681A617B693A689A617B69D2
:1054580000221A627B6901225A70FB7A03F00F035B
:10546800DAB27B691A70FB681B69012B02D17A6872
:105478007B695A61FB7A03F00F03002B09D1FB68A3
:105488001868FB681B69DBB21A46796903F05EFE8F
:1054980008E0FB681868FB681B69DBB21A46796983
:1054A80003F00CFC002318461837BD4680BD80B5B4
:1054B80084B000AF78600B46FB70FB7803F00F02F6
:1054C8007B685B689A4201D9012350E097F9033061
:1054D800002B0FDAFB7803F00F021346DB001344AE
:1054E8009B0038337A6813440433FB60FB6801225D
:1054F8005A700DE0FA781346DB0013449B0003F55D
:105508001E737A6813440433FB60FB6800225A70E8
:10551800FB6801229A70FB7803F00F03DAB2FB688C
:105528001A707B6893F8BC34012B01D102231EE06A
:105538007B68012283F8BC247B681B68F9681846DD
:1055480004F09CF8FB7803F00F03002B0AD17B686A
:1055580018687B681B69D9B27B6803F2C4431A4692
:1055680004F08CFA7B68002283F8BC2400231846D8
:105578001037BD4680BD80B584B000AF78600B465B
:10558800FB70FB7803F00F027B685B689A4201D9D5
:10559800012342E097F90330002B0FDAFB7803F080
:1055A8000F021346DB0013449B0038337A68134418
:1055B8000433FB60FB6801225A700FE0FB7803F0AC
:1055C8000F021346DB0013449B0003F51E737A6831
:1055D80013440433FB60FB6800225A70FB68002206
:1055E8009A70FB7803F00F03DAB2FB681A707B68D5
:1055F80093F8BC34012B01D102230EE07B68012211
:1056080083F8BC247B681B68F968184604F0A4F882
:105618007B68002283F8BC24002318461037BD4657
:1056280080BD80B584B000AF78600B46FB7097F9F9
:105638000330002B0CDAFB7803F00F021346DB0073
:1056480013449B0038337A6813440433FB600CE03E
:10565800FB7803F00F021346DB0013449B0003F5AD
:105668001E737A6813440433FB607B681B68F9680F
:10567800184603F0C3FE0346FB72FB7A1846103740
:10568800BD4680BD80B58AB002AF786039607B685E
:105698001B687B617B693B613A681346DB001344F6
:1056A8009B0038337A6813440433FB60FB681A6A3A
:1056B800FB689B699A4201D901236CE0FB689A69EF
:1056C800FB681B6AD31AFB61FB68DB68FA699A42BC
:1056D80002D9FB68DB68FB61FB6903339B08BB618C
:1056E8002BE0FB689A69FB681B6AD31AFB61FB68AD
:1056F800DB68FA699A4202D9FB68DB68FB61FB69DF
:1057080003339B08BB61FB6819693B68DAB2FB6924
:1057180098B27B681B69DBB200930346786903F093
:1057280017FFFB681A69FB691A44FB681A61FB6872
:105738001A6AFB691A44FB681A623B685A013B699A
:10574800134403F510639B699BB2BA699A4209D85E
:10575800FB681A6AFB689B699A4203D2FB689B69DB
:10576800002BBED1FB689A69FB681B6A9A4211D864
:105778003B6803F00F03012202FA03F3BB603B69A5
:1057880003F500635A6BBB68DB43396901F50061B7
:1057980013404B63002318462037BD4680BD0000E8
:1057A80080B588B000AF786039607B681B68FB61A2
:1057B800FB69BB61FB693C3304331B687B613B6855
:1057C8005A01BB69134403F530639B683B617B68EE
:1057D8001B69012B7BD13B6903F00803002B15D013
:1057E8007B69614A934240F2B9803B6903F4004304
:1057F800002B00F0B3803B685A01BB69134403F5E2
:1058080030631A464FF400439360A7E03B6903F006
:105818002003002B09D03B685A01BB69134403F5E8
:1058280030631A462023936098E03B6903F028030D
:10583800002B40F093807B694B4A93420FD93B6918
:1058480003F40043002B0AD03B685A01BB69134498
:1058580003F530631A464FF4004393607EE03A68DC
:105868001346DB0013449B0003F51E737A68134448
:105878000433FB60FB68DA693B685901BB690B4478
:1058880003F530631B69C3F31203D21AFB681A626B
:105898003B68002B14D1FB689B69002B09D17B68FE
:1058A80018687B6803F2C4431A46012104F0E6F83D
:1058B80006E0FB681A69FB681B6A1A44FB681A61F0
:1058C8003B68DBB21946786804F0B0FB46E07B69B8
:1058D800264A934224D13B6903F40043002B0AD0A3
:1058E8003B685A01BB69134403F530631A464FF409
:1058F8000043936032E03B6903F02003002B08D09B
:105908003B685A01BB69134403F530631A462023E8
:1059180093603B68DBB21946786804F087FB1DE0AA
:105928003B68002B14D179683A681346DB001344AE
:105938009B000B4403F525731B68002B08D17B687B
:1059480018687B6803F2C4431A46002104F096F8ED
:105958003B68DBB21946786804F068FB00231846F8
:105968002037BD4680BD00BF0A30544F0A31544F1E
:1059780080B586B000AF786039607B681B687B6152
:105988007B693B617B693C3304331B68FB603B6884
:105998005A013B69134403F530639B68BB60FB689D
:1059A800154A93420ED9BB6803F40043002B09D073
:1059B8003B685A013B69134403F530631A464FF4B8
:1059C80000439360786804F01FFBFB680A4A93421F
:1059D8000CD97B681B69012B08D17B6818687B6828
:1059E80003F2C4431A46012104F048F8002318467C
:1059F8001837BD4680BD00BF0A30544F80B586B009
:105A080000AF78607B68002B01D1012367E27B68D7
:105A18001B6803F00103002B75D0884B9B6803F0CB
:105A28000C03042B0CD0854B9B6803F00C03082B4C
:105A380012D1824B5B6803F48003B3F5800F0BD15E
:105A48007E4B1B6803F40033002B5BD07B685B68DC
:105A5800002B57D1012342E27B685B68B3F5803F96
:105A680006D1764B1B68754A43F4803313601DE0FA
:105A78007B685B68B3F5A02F0CD1704B1B686F4A2D
:105A880043F4802313606D4B1B686C4A43F48033E6
:105A980013600BE0694B1B68684A23F4803313607A
:105AA800664B1B68654A23F4802313607B685B6838
:105AB800002B13D002F0F6FB386108E002F0F2FB8D
:105AC80002463B69D31A642B01D9032307E25B4BD7
